:020000040800F2
:1000000000280020C11B0008C51A0008CB1A0008F0
:10001000D11A0008D71A0008DD1A000800000000F5
:10002000000000000000000000000000E31A0008CB
:10003000EF1A000800000000FB1A0008071B000868
:10004000091C0008091C0008091C0008091C0008FC
:10005000091C0008091C0008091C0008091C0008EC
:10006000091C0008091C0008091C0008091C0008DC
:10007000091C0008091C0008091C0008091C0008CC
:10008000091C0008091C0008091C0008091C0008BC
:10009000091C0008091C0008091C0008091C0008AC
:1000A000091C0008091C0008091C0008091C00089C
:1000B000151B0008091C000800000000091C0008AE
:1000C000091C00080000000000000000091C0008D6
:1000D00000000000091C0008091C000800000000C6
:1000E000091C0008091C0008091C00080000000089
:1000F0000000000000000000000000000000000000
:0C01000000000000000000005FF808F1A3
:10010C0010B5054C237833B9044B13B10448AFF345
:10011C0000800123237010BD2C0000200000000083
:10012C005032000808B5034B1BB103490348AFF329
:10013C00008008BD00000000300000205032000894
:10014C0080B582B000AF786001224021984802F05F
:10015C0058F801228021964802F053F801224FF4FE
:10016C008071934802F04DF801224FF400719048D1
:10017C0002F047F801224FF480618D4802F041F8FB
:10018C0001224FF400618A4802F03BF801224FF43F
:10019C008051874802F035F87B68002B1CD1402138
:1001AC00834802F046F88021814802F042F84FF46F
:1001BC0080717F4802F03DF84FF400717C4802F0EA
:1001CC0038F84FF480617A4802F033F84FF400614C
:1001DC00774802F02EF8E6E07B68012B09D18021EC
:1001EC00734802F026F84FF48071714802F021F840
:1001FC00D9E07B68022B17D140216D4802F019F829
:10020C0080216B4802F015F84FF40071684802F039
:10021C0010F84FF48061664802F00BF84FF48051EF
:10022C00634802F006F8BEE07B68032B17D140212F
:10023C005F4801F0FEFF80215D4801F0FAFF4FF4AA
:10024C0080715B4801F0F5FF4FF40071584801F0E4
:10025C00F0FF4FF48051564801F0EBFFA3E07B68B0
:10026C00042B13D18021524801F0E3FF4FF480712D
:10027C004F4801F0DEFF4FF400614D4801F0D9FF0B
:10028C004FF480514A4801F0D4FF8CE07B68052B79
:10029C0018D14021464801F0CCFF4FF480714448FE
:1002AC0001F0C7FF4FF40071414801F0C2FF4FF459
:1002BC0000613F4801F0BDFF4FF480513C4801F014
:1002CC00B8FF70E07B68062B1DD14021384801F047
:1002DC00B0FF4FF48071364801F0ABFF4FF4007162
:1002EC00334801F0A6FF4FF48061314801F0A1FFC3
:1002FC004FF400612E4801F09CFF4FF480512C48C4
:10030C0001F097FF4FE07B68072B0DD14021284867
:10031C0001F08FFF8021264801F08BFF4FF4807194
:10032C00234801F086FF3EE07B68082B21D1402159
:10033C001F4801F07EFF80211D4801F07AFF4FF429
:10034C0080711B4801F075FF4FF40071184801F0E3
:10035C0070FF4FF48061164801F06BFF4FF40061A1
:10036C00134801F066FF4FF48051114801F061FF12
:10037C0019E07B68092B16D140210D4801F059FF7B
:10038C0080210B4801F055FF4FF48071084801F0B3
:10039C0050FF4FF40061064801F04BFF4FF48051C1
:1003AC00034801F046FF00BF0837BD4680BD00BFC3
:1003BC000008014080B582B000AF786001220821AE
:1003CC008D4801F01EFF012210218B4801F019FF0E
:1003DC0001222021884801F014FF01224021864887
:1003EC0001F00FFF01228021834801F00AFF012256
:1003FC004FF48071804801F004FF01224FF400712A
:10040C007D4801F0FEFE7B68002B19D108217A484B
:10041C0001F00FFF1021784801F00BFF20217648E6
:10042C0001F007FF4021744801F003FF802172485E
:10043C0001F0FFFE4FF480716F4801F0FAFED6E038
:10044C007B68012B08D110216B4801F0F2FE2021B2
:10045C00694801F0EEFECAE07B68022B15D1082139
:10046C00654801F0E6FE1021634801F0E2FE4021F0
:10047C00614801F0DEFE80215F4801F0DAFE4FF4A6
:10048C0000715D4801F0D5FEB1E07B68032B15D1FE
:10049C000821594801F0CDFE1021574801F0C9FE42
:1004AC002021554801F0C5FE4021534801F0C1FE02
:1004BC004FF40071504801F0BCFE98E07B68042BAF
:1004CC0012D110214C4801F0B4FE20214A4801F011
:1004DC00B0FE4FF48071484801F0ABFE4FF4007150
:1004EC00454801F0A6FE82E07B68052B16D1082159
:1004FC00414801F09EFE20213F4801F09AFE402128
:10050C003D4801F096FE4FF480713B4801F091FE9E
:10051C004FF40071384801F08CFE68E07B68062BC4
:10052C001AD10821344801F084FE2021324801F010
:10053C0080FE4021304801F07CFE80212E4801F0E5
:10054C0078FE4FF480712C4801F073FE4FF400716B
:10055C00294801F06EFE4AE07B68072B0CD108217C
:10056C00254801F066FE1021234801F062FE20218F
:10057C00214801F05EFE3AE07B68082B1ED1082171
:10058C001D4801F056FE10211B4801F052FE20219F
:10059C00194801F04EFE4021174801F04AFE802117
:1005AC00154801F046FE4FF48071134801F041FEEE
:1005BC004FF40071104801F03CFE18E07B68092BE9
:1005CC0015D108210C4801F034FE10210A4801F025
:1005DC0030FE2021084801F02CFE4FF480710648B3
:1005EC0001F027FE4FF40071034801F022FE00BF1A
:1005FC000837BD4680BD00BF000C014080B584B0FB
:10060C0000AFF860B9607A60FB68002B03D0FB6820
:10061C00012B04D007E0B868FFF792FD03E078687F
:10062C00FFF78EFD00BF00BF1037BD4680BD80B503
:10063C0084B000AFF860B9607A60FB68002B03D01F
:10064C00FB68012B04D007E0B868FFF7B3FE03E0AA
:10065C007868FFF7AFFE00BF00BF1037BD4680BD06
:10066C0080B500AF6F4B1B78022B30D0022B43DCD4
:10067C00002B02D0012B10D03EE0002000F0DAF865
:10068C000346002B33D0674B01221A7001224FF422
:10069C000051654801F0B5FD29E0002000F0CAF8D2
:1006AC000346002B09D100224FF400515E4801F0A3
:1006BC00A8FD5C4B00221A701BE0002000F0D4F85F
:1006CC000346002B15D0574B02221A7011E0002064
:1006DC0000F0B0F80346002B0DD100224FF400516E
:1006EC00514801F08EFD4F4B00221A7003E000BF01
:1006FC0002E000BF00E000BF4C4B1B78022B30D057
:10070C00022B43DC002B02D0012B10D03EE0012049
:10071C0000F090F80346002B33D0444B01221A70A2
:10072C0001224FF48041404801F06BFD29E001208B
:10073C0000F080F80346002B09D100224FF48041D1
:10074C00394801F05EFD394B00221A701BE0012084
:10075C0000F08AF80346002B15D0344B02221A7095
:10076C0011E0012000F066F80346002B0DD10022A9
:10077C004FF480412C4801F044FD2C4B00221A70A0
:10078C0003E000BF02E000BF00E000BF284B1B7875
:10079C00022B30D0022B43DC002B02D0012B10D0CB
:1007AC003EE0022000F046F80346002B33D0204BED
:1007BC0001221A7001224FF400411B4801F021FD67
:1007CC0029E0022000F036F80346002B09D1002264
:1007DC004FF40041144801F014FD154B00221A701F
:1007EC001BE0022000F040F80346002B15D0104B04
:1007FC0002221A7011E0022000F01CF80346002BB4
:10080C000DD100224FF40041074801F0FAFC084BCF
:10081C0000221A7003E000BF02E000BF00E000BF3E
:10082C0000BF80BD480000200008014049000020A6
:10083C004A00002080B483B000AF0346FB71FB7903
:10084C00022B01D9002307E0FB79064AD35C002B6D
:10085C000CBF01230023DBB218460C37BD4680BC0D
:10086C00704700BF4C00002080B483B000AF03463B
:10087C00FB71FB79022B01D9FF2307E0FB79064AB8
:10088C00D35C012B0CBF01230023DBB218460C37C1
:10089C00BD4680BC704700BF5800002080B582B0B8
:1008AC0000AF314B1A78314B1A700121304801F0EE
:1008BC0091FC03461A462C4B1A702B4B5A782B4B37
:1008CC005A7002212A4801F085FC03461A46264B31
:1008DC005A70254B9A78254B9A700421244801F0C4
:1008EC0079FC03461A46204B9A700023FB7133E0C7
:1008FC00FB791D4AD25CFB791C49CB5C9A4228D10E
:10090C00FA79FB791849895C1A4AD154FB79194A4E
:10091C00D35C002B14D1FB79174A32F81330632BBC
:10092C0009D8FB79144A32F81320013291B2124AD9
:10093C0022F813100DE0FB79104A0121D15408E084
:10094C00FB790D4A002122F81310FB790B4A002188
:10095C00D154FB790133FB71FB79022BC8D900BF51
:10096C0000BF0837BD4680BD500000205400002059
:10097C00000C01404C0000205C00002058000020BE
:10098C0080B590B000AF01F03BF900F04FFF00F0E4
:10099C00D5FF00F087FF64237B600A23FB630023F1
:1009AC007B6100233B610A2001F0BEF8854802F010
:1009BC0085F8854B1B68012BFBD1FFF751FE834B50
:1009CC001B68002B4FD1824B1B687A6802FB03F328
:1009DC007F4A1360FB6B7A6802FB03F3FB637D4B6E
:1009EC001A687B6802FB03F3BB637B4B1A687B685A
:1009FC0002FB03F37B63794B1A687B6802FB03F3FE
:100A0C003B63744B1B68FB62734B1B68BB62734B81
:100A1C001B687B626F4B1B683B626F4B1B68FB61F7
:100A2C006E4B1B68BB617B68DA0F13445B10FB6079
:100A3C006B4AFB681360654B01221A607B68DA0F06
:100A4C0013445B10BB60674ABB681360664ABB68A3
:100A5C001360664ABB6813607B68DA0F13445B1043
:100A6C001A46634B1A604FF40051624801F0B2FB16
:100A7C000346002B40F008815A4B1B68BA689A4217
:100A8C0000F302815C4B1B68002B30D10122012149
:100A9C00584801F0B6FB01220221564801F0B1FB87
:100AAC0001220421534801F0ACFB012208215148DA
:100ABC0001F0A7FB012210214E4801F0A2FB0122FC
:100ACC0020214C4801F09DFB4C4B00221A604C4BF2
:100ADC0000221A60484B1B680133474A13603D4B98
:100AEC001B68484A1360444B1B683B61C9E0424B8E
:100AFC001B68012B30D1012201213E4801F081FB02
:100B0C00012202213B4801F07CFB012204213948DF
:100B1C0001F077FB01220821364801F072FB01221B
:100B2C001021344801F06DFB01222021314801F0E5
:100B3C0068FB324B00221A60314B00221A602E4B9C
:100B4C001B6801332C4A1360244B1B682D4A13601D
:100B5C00294B1B683B6194E0274B1B68022B53D13C
:100B6C0001220121234801F04CFB012202212148E2
:100B7C0001F047FB012204211E4801F042FB012237
:100B8C0008211C4801F03DFB01221021194801F0FD
:100B9C0038FB01222021174801F033FB174B0022B0
:100BAC001A60174B00221A60134B1B680133124A50
:100BBC001360094B1B68134A13600F4B1B683B6196
:100BCC005FE000BF9800002094000020640000202B
:100BDC000000002004000020080000200C00002071
:100BEC00680000206C0000207000002074000020C1
:100BFC0078000020000801407C00002080000020CC
:100C0C008400002088000020994B1A68994B1B68BF
:100C1C001A44994B1B681A447B6802FB03F3FB6371
:100C2C00964AFB6B1360924B1B68FB62914B1B68E3
:100C3C00BB62914B1B687B628D4B1B683B628D4B7F
:100C4C001B68FB618C4B1B68BB6100237B618C4B6D
:100C5C0000221A608B4B00221A6000233B618A4AE7
:100C6C00FB681360824B1B68884A1360824B1B68BD
:100C7C00874A13607F4B1B68864A1360864B0022A1
:100C8C001A60864B00221A60844B1B680133834A1E
:100C9C001360814B1B68032B00F2AB8501A252F849
:100CAC0023F000BFC10C00082911000881130008B3
:100CBC00D9150008714B1B68FA6B9A4216DBFA6B5C
:100CCC00BB6BD21A6D4B1B689A420FDA00220121C2
:100CDC00734801F096FA01220221714801F091FA51
:100CEC00012204216E4801F08CFA3BE0FA6BBB6BDD
:100CFC00D21A624B1B689A4218DBFA6BBB6BD21A86
:100D0C007B6BD21A5D4B1B689A420FDA01220121D0
:100D1C00634801F076FA01220221614801F071FA70
:100D2C00002204215E4801F06CFA1BE0FA6BBB6BED
:100D3C00D21A7B6BD21A514B1B689A4212DB4F4B67
:100D4C001B68002B0EDD01220121554801F059FAD8
:100D5C0000220221524801F054FA01220421504889
:100D6C0001F04FFA454B1B687A6893FBF2F27968F5
:100D7C0001FB02F29B1A002B78D17B69022B27D046
:100D8C007B69022B33DC7B69002B03D07B69012B45
:100D9C000FD02CE03B4AFB6A1360FB6A013BFB6201
:100DAC00FB6A002B25D101237B61314B1B68FB6255
:100DBC001FE0344ABB6A1360BB6A013BBB62BB6A6F
:100DCC00002B18D102237B612A4B1B68BB6212E0FB
:100DDC002C4A7B6A13607B6A013B7B627B6A002B2B
:100DEC000BD100237B61244B1B687B6205E000BFA9
:100DFC0004E000BF02E000BF00E000BF204B1B6816
:100E0C00022B24D0022B4DDC002B02D0012B0FD057
:100E1C0048E0FB693B61FB69013BFB61FB69002B13
:100E2C0042D1174B01221A60124B1B68FB613BE04D
:100E3C00BB693B61BB69013BBB61BB69002B35D115
:100E4C000F4B02221A600C4B1B68BB612EE03B6AF5
:100E5C003B613B6A013B3B623B6A002B28D1084B50
:100E6C0000221A60024B1B683B6221E000BF20E0AD
:100E7C0004000020080000200C00002000000020CE
:100E8C008C0000208800002068000020100000204A
:100E9C0014000020180000207C0000206C000020B2
:100EAC000008014000BF04E000BF02E000BF00E00A
:100EBC0000BF924B1B68FA6B9A4216DBFA6B7B6B8A
:100ECC00D21A8E4B1B689A420FDA012208218C48E9
:100EDC0001F097F901221021894801F092F90022C2
:100EEC002021874801F08DF93BE0FA6B7B6BD21A1D
:100EFC00824B1B689A4218DBFA6B3B6BD21A7B6BEA
:100F0C00D21A7E4B1B689A420FDA012208217C48C8
:100F1C0001F077F900221021794801F072F90122D1
:100F2C002021774801F06DF91BE0FA6B3B6BD21A6C
:100F3C007B6BD21A714B1B689A4212DB6F4B1B688E
:100F4C00002B0EDD002208216D4801F05AF9012218
:100F5C0010216B4801F055F901222021684801F05D
:100F6C0050F9684B1B68002B00F3B580664B1B686F
:100F7C00002B02D0012B2AD053E000224FF48051D9
:100F8C00624801F03EF901224FF400515F4801F034
:100F9C0038F95F4B1B685F4A82FB03129210DB1718
:100FAC00D01A5B4B1A685B4B83FB02139910D31757
:100FBC00C91A0B469B000B445B00D11A0A4601462A
:100FCC000020FFF71BFB504B01221A6029E0012285
:100FDC004FF480514D4801F014F900224FF40051A8
:100FEC004A4801F00EF94A4B1B684A4A82FB03122D
:100FFC009210DB17D01A464B1A68464B83FB021330
:10100C009910D317C91A0B469B000B445B00D11ADD
:10101C000A4601460120FFF7F1FA3B4B00221A6009
:10102C0000BF3D4B1B68002B02D0012B28D04FE09A
:10103C0000224FF48041354801F0E3F801224FF4CF
:10104C000041324801F0DDF83B69324A82FB031261
:10105C009210DB17D01A3A692E4B83FB02139910AE
:10106C00D317C91A0B469B000B445B00D11A0A46D6
:10107C0001460020FFF7DBFA274B01221A6027E01C
:10108C0001224FF48041214801F0BBF800224FF4BB
:10109C0000411E4801F0B5F83B691E4A82FB031261
:1010AC009210DB17D01A3A691A4B83FB0213991072
:1010BC00D317C91A0B469B000B445B00D11A0A4686
:1010CC0001460120FFF7B3FA134B00221A6000BF50
:1010DC000C4AFB681360094B1B68002B02DC074AA7
:1010EC00FB6B1360074B1B68013B064A1360034BF9
:1010FC001B68013B014A13607BE300BF000000202A
:10110C00000801406800002080000020000C014015
:10111C00880000206766666684000020894B1B6887
:10112C00013B884A1360874B1B68002B0EDC0121A6
:10113C00854801F07EF80821834801F07AF87B6835
:10114C00DA0F13445B101A467E4B1A604FF4804141
:10115C007D4801F03FF80346002B10D17B4B1B68F8
:10116C00BA689A420BDC7A4B1B680133784A1360DD
:10117C00774B1B68774A1360744B00221A604FF44C
:10118C000041714801F026F80346002B0FD1724B39
:10119C001B68BA689A420ADC6D4B1B686F4A136075
:1011AC006E4B1B686B4A13606B4B00221A606C4BC6
:1011BC001B68002B00F3B5806A4B1B68002B02D018
:1011CC00012B2AD053E000224FF48051664801F0E5
:1011DC0018F801224FF40051634801F012F85D4BEE
:1011EC001B68624A82FB03129210DB17D01A594B10
:1011FC001A685E4B83FB02139910D317C91A0B465E
:10120C009B000B445B00D11A0A4601460020FFF7F5
:10121C00F5F9544B01221A6029E001224FF4805158
:10122C00514800F0EEFF00224FF400514E4800F000
:10123C00E8FF484B1B684D4A82FB03129210DB17E8
:10124C00D01A444B1A68494B83FB02139910D317DD
:10125C00C91A0B469B000B445B00D11A0A46014687
:10126C000120FFF7CBF93F4B00221A6000BF404B27
:10127C001B68002B02D0012B28D04FE000224FF42A
:10128C008041394800F0BDFF01224FF4004136483F
:10129C0000F0B7FF3B69354A82FB03129210DB1753
:1012AC00D01A3A69314B83FB02139910D317C91A20
:1012BC000B469B000B445B00D11A0A4601460020EA
:1012CC00FFF7B5F92A4B01221A6027E001224FF4EF
:1012DC008041254800F095FF00224FF40041224840
:1012EC0000F08FFF3B69214A82FB03129210DB173F
:1012FC00D01A3A691D4B83FB02139910D317C91AE4
:10130C000B469B000B445B00D11A0A460146012098
:10131C00FFF78DF9164B00221A6000BF104AFB68CC
:10132C0013600D4B1B6801330B4A1360074B1B6892
:10133C000133064A13600A4B1B68013B084A1360D1
:10134C0057E200BF78000020000801407000002028
:10135C0010000020880000207400002004000020F1
:10136C006800002080000020000C01406766666663
:10137C0084000020894B1B68013B884A1360874B13
:10138C001B68002B0EDC0221854800F052FF102157
:10139C00834800F04EFF7B68DA0F13445B101A464B
:1013AC007E4B1A604FF480417D4800F013FF0346DA
:1013BC00002B10D17B4B1B68BA689A420BDC7A4B22
:1013CC001B680133784A1360774B1B68774A1360AC
:1013DC00744B00221A604FF40041714800F0FAFE81
:1013EC000346002B0FD1724B1B68BA689A420ADC79
:1013FC006D4B1B686F4A13606E4B1B686B4A136016
:10140C006B4B00221A606C4B1B68002B00F3B580F1
:10141C006A4B1B68002B02D0012B2AD053E0002210
:10142C004FF48051664800F0ECFE01224FF400515D
:10143C00634800F0E6FE5D4B1B68624A82FB0312B8
:10144C009210DB17D01A594B1A685E4B83FB0213B0
:10145C009910D317C91A0B469B000B445B00D11A89
:10146C000A4601460020FFF7C9F8544B01221A60C6
:10147C0029E001224FF48051514800F0C2FE0022B5
:10148C004FF400514E4800F0BCFE484B1B684D4ACF
:10149C0082FB03129210DB17D01A444B1A68494B8B
:1014AC0083FB02139910D317C91A0B469B000B44EC
:1014BC005B00D11A0A4601460120FFF79FF83F4B0B
:1014CC0000221A6000BF404B1B68002B02D0012B7E
:1014DC0028D04FE000224FF48041394800F091FEB3
:1014EC0001224FF40041364800F08BFE3B69354A2F
:1014FC0082FB03129210DB17D01A3A69314B83FB33
:10150C0002139910D317C91A0B469B000B445B00AE
:10151C00D11A0A4601460020FFF789F82A4B01220E
:10152C001A6027E001224FF48041254800F069FE43
:10153C0000224FF40041224800F063FE3B69214A2F
:10154C0082FB03129210DB17D01A3A691D4B83FBF6
:10155C0002139910D317C91A0B469B000B445B005E
:10156C00D11A0A4601460120FFF761F8164B0022FA
:10157C001A6000BF104AFB6813600D4B1B680133E7
:10158C000B4A1360074B1B680133064A13600A4B66
:10159C001B68013B084A13602BE100BF7800002058
:1015AC00000801407000002014000020880000207A
:1015BC00740000200C000020680000208000002037
:1015CC00000C014067666666840000208B4B1B682C
:1015DC00013B8A4A1360894B1B68002B0EDC0421EB
:1015EC00874800F026FE2021854800F022FE7B680B
:1015FC00DA0F13445B101A46804B1A604FF480418B
:10160C007F4800F0E7FD0346002B10D17D4B1B6893
:10161C00BA689A420BDC7C4B1B6801337A4A136024
:10162C00794B1B68794A1360764B00221A604FF491
:10163C000041734800F0CEFD0346002B0FD1744BD4
:10164C001B68BA689A420ADC6F4B1B68714A1360BC
:10165C00704B1B686D4A13606D4B00221A606E4B09
:10166C001B68002B00F3B5806C4B1B68002B02D061
:10167C00012B2AD053E000224FF48051684800F02F
:10168C00C0FD01224FF40051654800F0BAFD5F4BDC
:10169C001B68644A82FB03129210DB17D01A5B4B57
:1016AC001A68604B83FB02139910D317C91A0B46A7
:1016BC009B000B445B00D11A0A4601460020FEF742
:1016CC009DFF564B01221A6029E001224FF48051F4
:1016DC00534800F096FD00224FF40051504800F0A2
:1016EC0090FD4A4B1B684F4A82FB03129210DB178A
:1016FC00D01A464B1A684B4B83FB02139910D31725
:10170C00C91A0B469B000B445B00D11A0A460146D2
:10171C000120FEF773FF414B00221A6000BF424BC1
:10172C001B68002B02D0012B28D04FE000224FF475
:10173C0080413B4800F065FD01224FF400413848E0
:10174C0000F05FFD3B69374A82FB03129210DB17F6
:10175C00D01A3A69334B83FB02139910D317C91A69
:10176C000B469B000B445B00D11A0A460146002035
:10177C00FEF75DFF2C4B01221A6027E001224FF48B
:10178C008041274800F03DFD00224FF400412448E1
:10179C0000F037FD3B69234A82FB03129210DB17E2
:1017AC00D01A3A691F4B83FB02139910D317C91A2D
:1017BC000B469B000B445B00D11A0A4601460120E4
:1017CC00FEF735FF184B00221A6000BF124AFB6867
:1017DC0013600F4B1B6801330D4A1360094B1B68D8
:1017EC000133084A13600C4B1B68013B0A4A136017
:1017FC0000BF0A2000F098F9FFF7DBB87800002052
:10180C000008014070000020180000208800002013
:10181C0074000020080000206800002080000020D8
:10182C00000C0140676666668400002080B590B0AD
:10183C0000AF07F1180328220021184601F0FAFC2A
:10184C003B1D00221A605A609A60DA601A6102230A
:10185C00BB610123BB621023FB6200237B6307F196
:10186C001803184600F0FEFC0346002B01D000F0D4
:10187C00C7F80F237B600023BB600023FB600023B1
:10188C003B6100237B613B1D0021184600F06AFF81
:10189C000346002B01D000F0B3F800BF4037BD4623
:1018AC0080BD000080B586B000AF07F108030022B0
:1018BC001A605A609A60DA603B4600221A605A60DD
:1018CC001D4B4FF080421A601B4B41F63F725A6021
:1018DC00194B00229A60184B0922DA60164B002231
:1018EC001A61154B00229A61134801F097F80346D0
:1018FC00002B01D000F084F84FF48053BB6007F14B
:10190C00080319460C4801F02DFA0346002B01D0B0
:10191C0000F076F800233B6000237B603B461946C1
:10192C00054801F0F9FB0346002B01D000F068F8E4
:10193C0000BF1837BD4680BD9800002080B586B02A
:10194C0000AF07F1080300221A605A609A60DA604F
:10195C00284B9B69274A43F004039361254B9B69F1
:10196C0003F004037B607B68224B9B69214A43F0A4
:10197C00080393611F4B9B6903F008033B603B68B2
:10198C0000224FF6FF711C4800F03BFC00224FF286
:10199C00F8311A4800F035FC4FF6FF73BB60012399
:1019AC00FB6000233B6102237B6107F108031946AE
:1019BC00114800F095FA0723BB600023FB6000235D
:1019CC003B6107F1080319460C4800F089FA4FF205
:1019DC00F833BB600123FB6000233B6102237B6176
:1019EC0007F108031946054800F07AFA00BF1837CA
:1019FC00BD4680BD0010024000080140000C0140B3
:101A0C0080B400AF72B600BFFEE7000080B485B0B2
:101A1C0000AF154B9B69144A43F001039361124BC1
:101A2C009B6903F00103BB60BB680F4BDB690E4A7B
:101A3C0043F08053D3610C4BDB6903F080537B6024
:101A4C007B680A4B5B68FB60FB6823F0E063FB6020
:101A5C00FB6843F08063FB60044AFB68536000BF83
:101A6C001437BD4680BC7047001002400000014096
:101A7C0080B584B000AF78607B681B68B3F1804F91
:101A8C0013D10C4BDB690B4A43F00103D361094BB7
:101A9C00DB6903F00103FB60FB68002200211C20C2
:101AAC0000F0E7F91C2000F000FA00BF1037BD462B
:101ABC0080BD00BF0010024080B400AFFEE780B4D0
:101ACC0000AFFEE780B400AFFEE780B400AFFEE7E6
:101ADC0080B400AFFEE780B400AF00BFBD4680BC51
:101AEC00704780B400AF00BFBD4680BC704780B467
:101AFC0000AF00BFBD4680BC704780B500AF00F0A2
:101B0C00C5F800BF80BD000080B500AF024801F0F1
:101B1C0021F800BF80BD00BF9800002080B400AF4A
:101B2C0000BFBD4680BC704780B483B000AF786006
:101B3C00074B1B687A6892FBF3F3064A1360064B5B
:101B4C0000221A6000BF0C37BD4680BC704700BF36
:101B5C0020000020900000209400002080B400AFF2
:101B6C00094B1B68002B0BDD074B1B68013B064A1E
:101B7C001360054B1B68002B02D1044B01221A6029
:101B8C0000BFBD4680BC7047900000209400002030
:101B9C0080B582B000AF78607B681B68B3F1804F72
:101BAC0003D1FEF77BFEFFF7D9FF00BF0837BD4618
:101BBC0080BD0000FFF7B2FF0B480C490C4A002314
:101BCC0002E0D458C4500433C4188C42F9D3094AE7
:101BDC00094C002301E013600432A242FBD301F054
:101BEC0005FBFEF7CDFE7047000000202C00002006
:101BFC00943200082C000020E4000020FEE70000D6
:101C0C0080B500AF084B1B68074A43F01003136004
:101C1C00032000F023F90F2000F008F8FFF7F6FE80
:101C2C000023184680BD00BF0020024080B582B062
:101C3C0000AF7860124B1A68124B1B7819464FF4A0
:101C4C007A73B3FBF1F3B2FBF3F3184600F03BF9F4
:101C5C000346002B01D001230EE07B680F2B0AD822
:101C6C00002279684FF0FF3000F003F9064A7B68D8
:101C7C001360002300E0012318460837BD4680BDE1
:101C8C001C000020280000202400002080B400AF9D
:101C9C00054B1B781A46054B1B681344034A13600B
:101CAC0000BFBD4680BC704728000020E00000202B
:101CBC0080B400AF024B1B681846BD4680BC704711
:101CCC00E000002080B485B000AF78607B6803F042
:101CDC000703FB600C4BDB68BB60BA684FF6FF0375
:101CEC001340BB60FB681A02BB68134343F0BF632D
:101CFC0043F40033BB60044ABB68D36000BF1437A5
:101D0C00BD4680BC704700BF00ED00E080B400AF62
:101D1C00044BDB681B0A03F007031846BD4680BC66
:101D2C00704700BF00ED00E080B483B000AF034605
:101D3C00FB7197F90730002B0BDBFB7903F01F02CB
:101D4C00064997F907305B09012000FA02F241F8C5
:101D5C00232000BF0C37BD4680BC704700E100E07B
:101D6C0080B483B000AF03463960FB7197F907303C
:101D7C00002B0ADB3B68DAB20C4997F907301201E9
:101D8C00D2B20B4483F800230AE03B68DAB208496C
:101D9C00FB7903F00F03043B1201D2B20B441A7609
:101DAC0000BF0C37BD4680BC704700BF00E100E0AF
:101DBC0000ED00E080B489B000AFF860B9607A60E3
:101DCC00FB6803F00703FB61FB69C3F10703042BFA
:101DDC0028BF0423BB61FB690433062B02D9FB69C2
:101DEC00033B00E000237B614FF0FF32BB6902FA3A
:101DFC0003F3DA43BB681A407B699A404FF0FF311A
:101E0C007B6901FA03F3D9437B680B4013431846F3
:101E1C002437BD4680BC704780B582B000AF786077
:101E2C007B68013BB3F1807F01D301230FE00A4AA9
:101E3C007B68013B53600F214FF0FF30FFF790FFA1
:101E4C00054B00229A60044B07221A6000231846A7
:101E5C000837BD4680BD00BF10E000E080B582B001
:101E6C0000AF78607868FFF72DFF00BF0837BD46DC
:101E7C0080BD80B586B000AF0346B9607A60FB7355
:101E8C0000237B61FFF742FF78617A68B968786953
:101E9C00FFF790FF024697F90F3011461846FFF7EF
:101EAC005FFF00BF1837BD4680BD80B582B000AF64
:101EBC000346FB7197F907301846FFF735FF00BF53
:101ECC000837BD4680BD80B582B000AF78607868B9
:101EDC00FFF7A2FF034618460837BD4680BD000039
:101EEC0080B48BB000AF7860396000237B62002334
:101EFC003B6248E101227B6A02FA03F3FB613B6817
:101F0C001B68FA691340BB61BA69FB699A4240F0DD
:101F1C0037813B685B68A34A93425ED0A14A9342E7
:101F2C0075D8A14A934258D09F4A93426FD89F4A82
:101F3C00934252D09D4A934269D89D4A93424CD0C9
:101F4C009B4A934263D89B4A934246D0994A934208
:101F5C005DD8122B2AD8122B59D801A252F823F093
:101F6C00E71F0008C11F0008D31F00081520000838
:101F7C001B2000081B2000081B2000081B20000849
:101F8C001B2000081B2000081B2000081B20000839
:101F9C001B2000081B2000081B2000081B20000829
:101FAC001B200008C91F0008DD1F0008824A93424D
:101FBC0013D02CE03B68DB683B6229E03B68DB68B4
:101FCC0004333B6224E03B68DB6808333B621FE070
:101FDC003B68DB680C333B621AE03B689B68002B68
:101FEC0002D104233B6213E03B689B68012B05D1B3
:101FFC0008233B627B68FA691A6109E008233B629B
:10200C007B68FA695A6103E000233B6200E000BF81
:10201C00BB69FF2B01D87B6801E07B6804337B61D3
:10202C00BB69FF2B02D87B6A9B0002E07B6A083BF2
:10203C009B003B617B691A680F213B6901FA03F332
:10204C00DB431A40396A3B6901FA03F31A437B6993
:10205C001A603B685B6803F08053002B00F09080A3
:10206C00564B9B69554A43F001039361534B9B6953
:10207C0003F00103BB60BB68514A7B6A9B080233C7
:10208C0052F82330FB607B6A03F003039B000F22A2
:10209C0002FA03F3DB43FA681340FB607B68494A9E
:1020AC0093420DD07B68484A934207D07B68474ADD
:1020BC00934201D1022304E0032302E0012300E058
:1020CC0000237A6A02F0030292009340FA681343E9
:1020DC00FB603B497B6A9B080233FA6841F823207A
:1020EC003B685B6803F48013002B06D0384B9A686E
:1020FC003749BB6913438B6006E0354B9A68BB6963
:10210C00DB43334913408B603B685B6803F400137B
:10211C00002B06D02E4BDA682D49BB691343CB60DC
:10212C0006E02B4BDA68BB69DB4329491340CB60D3
:10213C003B685B6803F40033002B06D0244B5A68D1
:10214C002349BB6913434B6006E0214B5A68BB69BA
:10215C00DB431F4913404B603B685B6803F48033DF
:10216C00002B06D01A4B1A681949BB6913430B6034
:10217C0006E0174B1A68BB69DB43154913400B602B
:10218C007B6A01337B623B681A687B6A22FA03F331
:10219C00002B7FF4AFAE00BF00BF2C37BD4680BC18
:1021AC00704700BF000032100000311000002210F8
:1021BC00000021100000121000001110001002404D
:1021CC000000014000080140000C014000100140DB
:1021DC000004014080B485B000AF78600B467B8072
:1021EC007B689A687B881340002B02D00123FB7319
:1021FC0001E00023FB73FB7B18461437BD4680BC03
:10220C00704780B483B000AF78600B467B80134678
:10221C007B707B78002B03D07A887B681A6103E093
:10222C007B881A047B681A6100BF0C37BD4680BCE2
:10223C00704780B485B000AF78600B467B807B68BC
:10224C00DB68FB607A88FB6813401A04FB68D9438F
:10225C007B880B401A437B681A6100BF1437BD465C
:10226C0080BC704780B586B000AF78607B68002B6F
:10227C0001D101236CE27B681B6803F00103002B86
:10228C0000F08780924B5B6803F00C03042B0CD09E
:10229C008F4B5B6803F00C03082B12D18C4B5B68E3
:1022AC0003F48033B3F5803F0BD1894B1B6803F4E7
:1022BC000033002B6CD07B685B68002B68D101234A
:1022CC0046E27B685B68B3F5803F06D1804B1B68A8
:1022DC007F4A43F4803313602EE07B685B68002BED
:1022EC000CD17B4B1B687A4A23F480331360784BF8
:1022FC001B68774A23F4802313601DE07B685B68BE
:10230C00B3F5A02F0CD1724B1B68714A43F4802398
:10231C0013606F4B1B686E4A43F4803313600BE001
:10232C006B4B1B686A4A23F480331360684B1B6841
:10233C00674A23F4802313607B685B68002B13D0FF
:10234C00FFF7B6FC386108E0FFF7B2FC02463B69C8
:10235C00D31A642B01D90323FAE15D4B1B6803F4F8
:10236C000033002BF0D014E0FFF7A2FC386108E03A
:10237C00FFF79EFC02463B69D31A642B01D9032359
:10238C00E6E1534B1B6803F40033002BF0D100E063
:10239C0000BF7B681B6803F00203002B63D04C4B1F
:1023AC005B6803F00C03002B0BD0494B5B6803F00C
:1023BC000C03082B1CD1464B5B6803F48033002BB9
:1023CC0016D1434B1B6803F00203002B05D07B682E
:1023DC001B69012B01D00123BAE13D4B1B6823F093
:1023EC00F8027B685B69DB00394913430B603AE008
:1023FC007B681B69002B20D0364B01221A60FFF73B
:10240C0057FC386108E0FFF753FC02463B69D31ACE
:10241C00022B01D903239BE12D4B1B6803F0020314
:10242C00002BF0D02A4B1B6823F0F8027B685B6909
:10243C00DB00274913430B6015E0264B00221A6082
:10244C00FFF736FC386108E0FFF732FC02463B69C7
:10245C00D31A022B01D903237AE11D4B1B6803F01D
:10246C000203002BF0D17B681B6803F00803002BE0
:10247C003AD07B689B69002B19D0174B01221A604C
:10248C00FFF716FC386108E0FFF712FC02463B69C7
:10249C00D31A022B01D903235AE10D4B5B6A03F0CB
:1024AC000203002BF0D0012000F09AFA1CE00A4B3A
:1024BC0000221A60FFF7FCFB38610FE0FFF7F8FB16
:1024CC0002463B69D31A022B08D9032340E100BF13
:1024DC000010024000004242800442429E4B5B6A64
:1024EC0003F00203002BE9D17B681B6803F00403A3
:1024FC00002B00F0A6800023FB75974BDB6903F0E3
:10250C008053002B0DD1944BDB69934A43F08053DD
:10251C00D361914BDB6903F08053BB60BB68012333
:10252C00FB758E4B1B6803F48073002B18D18B4BFF
:10253C001B688A4A43F480731360FFF7B9FB386158
:10254C0008E0FFF7B5FB02463B69D31A642B01D9AF
:10255C000323FDE0814B1B6803F48073002BF0D048
:10256C007B68DB68012B06D17B4B1B6A7A4A43F0F4
:10257C00010313622DE07B68DB68002B0CD1764BDA
:10258C001B6A754A23F001031362734B1B6A724A70
:10259C0023F0040313621CE07B68DB68052B0CD171
:1025AC006D4B1B6A6C4A43F0040313626A4B1B6A43
:1025BC00694A43F0010313620BE0674B1B6A664ADE
:1025CC0023F001031362644B1B6A634A23F0040378
:1025DC0013627B68DB68002B15D0FFF769FB386151
:1025EC000AE0FFF765FB02463B69D31A41F28832D9
:1025FC00934201D90323ABE0574B1B6A03F0020350
:10260C00002BEED014E0FFF753FB38610AE0FFF724
:10261C004FFB02463B69D31A41F28832934201D9EF
:10262C00032395E04C4B1B6A03F00203002BEED105
:10263C00FB7D012B05D1484BDB69474A23F08053C6
:10264C00D3617B68DB69002B00F08180424B5B68B7
:10265C0003F00C03082B61D07B68DB69022B46D19D
:10266C003F4B00221A60FFF723FB386108E0FFF7AD
:10267C001FFB02463B69D31A022B01D9032367E0E7
:10268C00354B1B6803F00073002BF0D17B681B6A81
:10269C00B3F5803F08D1304B5B6823F400327B6884
:1026AC009B682D4913434B602B4B5B6823F47412CE
:1026BC007B68196A7B685B6A0B43274913434B6041
:1026CC00274B01221A60FFF7F3FA386108E0FFF795
:1026DC00EFFA02463B69D31A022B01D9032337E0E8
:1026EC001D4B1B6803F00073002BF0D02FE01C4B2C
:1026FC0000221A60FFF7DCFA386108E0FFF7D8FA1D
:10270C0002463B69D31A022B01D9032320E0124B5A
:10271C001B6803F00073002BF0D118E07B68DB69B9
:10272C00012B01D1012313E00B4B5B68FB60FB68B1
:10273C0003F480327B681B6A9A4206D1FB6803F46F
:10274C0070127B685B6A9A4201D0012300E000237F
:10275C0018461837BD4680BD00100240007000407E
:10276C006000424280B584B000AF786039607B680D
:10277C00002B01D10123D0E06A4B1B6803F0070347
:10278C003A689A4210D9674B1B6823F007026549D7
:10279C003B6813430B60634B1B6803F007033A68F9
:1027AC009A4201D00123B8E07B681B6803F0020356
:1027BC00002B20D07B681B6803F00403002B05D092
:1027CC00594B5B68584A43F4E06353607B681B6861
:1027DC0003F00803002B05D0534B5B68524A43F4BB
:1027EC0060535360504B5B6823F0F0027B689B682E
:1027FC004D4913434B607B681B6803F00103002BAE
:10280C0040D07B685B68012B07D1474B1B6803F4F6
:10281C000033002B15D101237FE07B685B68022B12
:10282C0007D1414B1B6803F00073002B09D1012326
:10283C0073E03D4B1B6803F00203002B01D1012315
:10284C006BE0394B5B6823F003027B685B683649AD
:10285C0013434B60FFF72CFAF8600AE0FFF728FAF5
:10286C000246FB68D31A41F28832934201D9032302
:10287C0053E02D4B5B6803F00C027B685B689B009C
:10288C009A42EBD1274B1B6803F007033A689A4234
:10289C0010D2244B1B6823F0070222493B681343D8
:1028AC000B60204B1B6803F007033A689A4201D077
:1028BC00012332E07B681B6803F00403002B08D073
:1028CC00194B5B6823F4E0627B68DB6816491343A1
:1028DC004B607B681B6803F00803002B09D0124B7C
:1028EC005B6823F460527B681B69DB000E49134361
:1028FC004B6000F021F802460B4B5B681B0903F0A0
:10290C000F030A49CB5C22FA03F3094A1360094B03
:10291C001B681846FFF78AF9002318461037BD4686
:10292C0080BD00BF00200240001002406832000849
:10293C001C0000202400002080B487B000AF0023CE
:10294C00FB600023BB6000237B6100237B600023C2
:10295C003B611E4B5B68FB60FB6803F00C03042BB4
:10296C0002D0082B03D027E0194B3B6127E0FB6812
:10297C009B0C03F00F03174AD35C7B60FB6803F4DA
:10298C008033002B10D0114B5B685B0C03F0010300
:10299C00114AD35CBB607B680D4A02FB03F2BB6837
:1029AC00B2FBF3F37B6104E07B680C4A02FB03F39C
:1029BC007B617B693B6102E0054B3B6100BF3B697E
:1029CC0018461C37BD4680BC704700BF0010024043
:1029DC0000127A00783200088832000800093D00A5
:1029EC0080B485B000AF78600A4B1B680A4AA2FB22
:1029FC0003235B0A7A6802FB03F3FB6000BFFB68EE
:102A0C005A1EFA60002BF9D100BF00BF1437BD4627
:102A1C0080BC70471C000020D34D621080B582B082
:102A2C0000AF78607B68002B01D1012341E07B680B
:102A3C0093F83D30DBB2002B06D17B68002283F883
:102A4C003C207868FFF714F87B68022283F83D205D
:102A5C007B681A687B6804331946104600F06EFADE
:102A6C007B68012283F846207B68012283F83E2094
:102A7C007B68012283F83F207B68012283F8402089
:102A8C007B68012283F841207B68012283F8422075
:102A9C007B68012283F843207B68012283F8442061
:102AAC007B68012283F845207B68012283F83D2056
:102ABC00002318460837BD4680BD000080B485B0A1
:102ACC0000AF78607B6893F83D30DBB2012B01D00E
:102ADC00012335E07B68022283F83D207B681B686C
:102AEC00DA687B681B6842F00102DA607B681B685D
:102AFC00164A934209D07B681B68B3F1804F04D00F
:102B0C007B681B68124A934211D17B681B689B68D7
:102B1C0003F00703FB60FB68062B10D07B681B6877
:102B2C001A687B681B6842F001021A6007E07B6838
:102B3C001B681A687B681B6842F001021A6000234C
:102B4C0018461437BD4680BC704700BF002C0140AE
:102B5C000004004080B582B000AF78607B681B68D1
:102B6C001B6903F00203022B22D17B681B68DB6814
:102B7C0003F00203022B1BD17B681B686FF002026F
:102B8C001A617B6801221A777B681B689B6903F0CA
:102B9C000303002B03D0786800F0B4F905E07868E3
:102BAC0000F0A7F9786800F0B6F97B6800221A7774
:102BBC007B681B681B6903F00403042B22D17B6820
:102BCC001B68DB6803F00403042B1BD17B681B68B8
:102BDC006FF004021A617B6802221A777B681B680B
:102BEC009B6903F44073002B03D0786800F08AF9DA
:102BFC0005E0786800F07DF9786800F08CF97B6866
:102C0C0000221A777B681B681B6903F00803082BEA
:102C1C0022D17B681B68DB6803F00803082B1BD1EF
:102C2C007B681B686FF008021A617B6804221A77B4
:102C3C007B681B68DB6903F00303002B03D0786807
:102C4C0000F060F905E0786800F053F9786800F05E
:102C5C0062F97B6800221A777B681B681B6903F09A
:102C6C001003102B22D17B681B68DB6803F0100368
:102C7C00102B1BD17B681B686FF010021A617B68EC
:102C8C0008221A777B681B68DB6903F44073002BFE
:102C9C0003D0786800F036F905E0786800F029F97F
:102CAC00786800F038F97B6800221A777B681B681B
:102CBC001B6903F00103012B0ED17B681B68DB68D9
:102CCC0003F00103012B07D17B681B686FF0010235
:102CDC001A617868FEF75CFF7B681B681B6903F060
:102CEC008003802B0ED17B681B68DB6803F08003AC
:102CFC00802B07D17B681B686FF080021A617868A3
:102D0C0000F06BFA7B681B681B6903F04003402BD7
:102D1C000ED17B681B68DB6803F04003402B07D1A6
:102D2C007B681B686FF040021A61786800F0FCF851
:102D3C007B681B681B6903F02003202B0ED17B687A
:102D4C001B68DB6803F02003202B07D17B681B6812
:102D5C006FF020021A61786800F036FA00BF08376D
:102D6C00BD4680BD80B584B000AF7860396000236B
:102D7C00FB737B6893F83C30012B01D10223B4E048
:102D8C007B68012283F83C207B68022283F83D207B
:102D9C007B681B689B68BB60BB6823F07703BB60D8
:102DAC00BB6823F47F43BB607B681B68BA689A607E
:102DBC003B681B68B3F5005F3ED0B3F5005F00F2D3
:102DCC008780B3F5805F00F08680B3F5805F7FD895
:102DDC00702B1AD0702B7BD8602B50D0602B77D8EF
:102DEC00502B3CD0502B73D8402B58D0402B6FD845
:102DFC00302B64D0302B6BD8202B60D0202B67D895
:102E0C00002B5CD0102B5AD062E07B6818683B68B2
:102E1C0099683B685A683B68DB6800F05EF97B6830
:102E2C001B689B68BB60BB6843F07703BB607B6827
:102E3C001B68BA689A604FE07B6818683B689968B1
:102E4C003B685A683B68DB6800F047F97B681B6895
:102E5C009A687B681B6842F480429A603CE07B680D
:102E6C0018683B6859683B68DB681A4600F0BEF886
:102E7C007B681B685021184600F015F92CE07B6824
:102E8C0018683B6859683B68DB681A4600F0DCF848
:102E9C007B681B686021184600F005F91CE07B6814
:102EAC0018683B6859683B68DB681A4600F09EF866
:102EBC007B681B684021184600F0F5F80CE07B6835
:102ECC001A683B681B681946104600F0ECF803E0E2
:102EDC000123FB7300E000BF7B68012283F83D20D7
:102EEC007B68002283F83C20FB7B18461037BD46DC
:102EFC0080BD80B483B000AF786000BF0C37BD4696
:102F0C0080BC704780B483B000AF786000BF0C37D2
:102F1C00BD4680BC704780B483B000AF786000BF02
:102F2C000C37BD4680BC704780B483B000AF78606E
:102F3C0000BF0C37BD4680BC7047000080B485B024
:102F4C0000AF786039607B681B68FB607B68254A42
:102F5C00934207D07B68B3F1804F03D07B68224A41
:102F6C00934208D1FB6823F07003FB603B685B68FD
:102F7C00FA681343FB607B681A4A934207D07B685C
:102F8C00B3F1804F03D07B68174A934208D1FB689A
:102F9C0023F44073FB603B68DB68FA681343FB6007
:102FAC00FB6823F080023B685B691343FB607B6822
:102FBC00FA681A603B689A687B68DA623B681A6840
:102FCC007B689A627B68074A934203D13B681A6913
:102FDC007B681A637B6801225A6100BF1437BD46B7
:102FEC0080BC7047002C01400004004080B487B0C6
:102FFC0000AFF860B9607A60FB681B6A7B61FB68A4
:10300C001B6A23F00102FB681A62FB689B693B6137
:10301C003B6923F0F0033B617B681B013A69134366
:10302C003B617B6923F00A037B617A69BB681343BC
:10303C007B61FB683A699A61FB687A691A6200BF26
:10304C001C37BD4680BC704780B487B000AFF860B9
:10305C00B9607A60FB681B6A7B61FB681B6A23F0B2
:10306C001002FB681A62FB689B693B613B6923F4A5
:10307C0070433B617B681B033A6913433B617B697B
:10308C0023F0A0037B61BB681B017A6913437B614E
:10309C00FB683A699A61FB687A691A6200BF1C374F
:1030AC00BD4680BC704780B485B000AF7860396095
:1030BC007B689B68FB60FB6823F07003FB603A68DD
:1030CC00FB68134343F00703FB607B68FA689A6064
:1030DC0000BF1437BD4680BC704780B487B000AFCA
:1030EC00F860B9607A603B60FB689B687B617B69C8
:1030FC0023F47F437B613B681A027B681A43BB68ED
:10310C0013437A6913437B61FB687A699A6000BF49
:10311C001C37BD4680BC704780B485B000AF78606A
:10312C0039607B6893F83C30012B01D1022341E0DC
:10313C007B68012283F83C207B68022283F83D20C7
:10314C007B681B685B68FB607B681B689B68BB606B
:10315C00FB6823F07003FB603B681B68FA68134341
:10316C00FB607B681B68FA685A607B681B68144AB2
:10317C00934209D07B681B68B3F1804F04D07B6805
:10318C001B68104A93420CD1BB6823F08003BB60D0
:10319C003B685B68BA681343BB607B681B68BA68A2
:1031AC009A607B68012283F83D207B68002283F8BB
:1031BC003C20002318461437BD4680BC704700BF26
:1031CC00002C01400004004080B483B000AF786054
:1031DC0000BF0C37BD4680BC704780B483B000AFD5
:1031EC00786000BF0C37BD4680BC704770B50026B8
:1031FC000C4D0D4C641BA410A64209D100F022F812
:10320C0000260A4D0A4C641BA410A64205D170BDC1
:10321C0055F8043B98470136EEE755F8043B9847C0
:10322C000136F2E78C3200088C3200088C32000830
:10323C009032000803460244934200D1704703F8D1
:10324C00011BF9E7F8B500BFF8BC08BC9E467047F7
:0C325C00F8B500BFF8BC08BC9E467047E7
:10326800000000000000000001020304060708092E
:1032780002030405060708090A0B0C0D0E0F1010AF
:04328800010200003F
:04328C003101000804
:043290000D01000824
:103294000A00000005000000030000000200000016
:1032A4000500000002000000030000000024F400F8
:0C32B4000A0000001000000001000000F3
:0400000508001BC113
:00000001FF
