:020000040800F2
:100000000028002031100008D5090008DB0900088D
:10001000E1090008E7090008ED09000800000000F8
:10002000000000000000000000000000F3090008CC
:10003000FF090008000000000B0A0008170A00086A
:10004000791000087910000879100008791000086C
:10005000791000087910000879100008791000085C
:10006000791000087910000879100008791000084C
:10007000791000087910000879100008791000083C
:10008000791000087910000879100008791000082C
:10009000791000087910000879100008791000081C
:1000A000791000087910000879100008791000080C
:1000B000250A0008791000080000000079100008E7
:1000C000791000080000000000000000791000080E
:1000D00000000000791000087910000800000000FE
:1000E000791000087910000879100008000000005D
:1000F0000000000000000000000000000000000000
:0C01000000000000000000005FF808F1A3
:10010C0010B5054C237833B9044B13B10448AFF345
:10011C0000800123237010BD180000200000000097
:10012C00C026000808B5034B1BB103490348AFF3C5
:10013C00008008BD000000001C000020C026000844
:10014C0080B582B000AF786001224021984801F060
:10015C0090FA01228021964801F08BFA01224FF48B
:10016C008071934801F085FA01224FF40071904898
:10017C0001F07FFA01224FF480618D4801F079FA89
:10018C0001224FF400618A4801F073FA01224FF406
:10019C008051874801F06DFA7B68002B1CD14021FF
:1001AC00834801F07EFA8021814801F07AFA4FF4FD
:1001BC0080717F4801F075FA4FF400717C4801F0B2
:1001CC0070FA4FF480617A4801F06BFA4FF40061D9
:1001DC00774801F066FAE6E07B68012B09D18021B3
:1001EC00734801F05EFA4FF48071714801F059FACE
:1001FC00D9E07B68022B17D140216D4801F051FAF0
:10020C0080216B4801F04DFA4FF40071684801F001
:10021C0048FA4FF48061664801F043FA4FF480517C
:10022C00634801F03EFABEE07B68032B17D14021F6
:10023C005F4801F036FA80215D4801F032FA4FF444
:10024C0080715B4801F02DFA4FF40071584801F0B1
:10025C0028FA4FF48051564801F023FAA3E07B684A
:10026C00042B13D18021524801F01BFA4FF48071FA
:10027C004F4801F016FA4FF400614D4801F011FAA5
:10028C004FF480514A4801F00CFA8CE07B68052B46
:10029C0018D14021464801F004FA4FF480714448CB
:1002AC0001F0FFF94FF40071414801F0FAF94FF4F5
:1002BC0000613F4801F0F5F94FF480513C4801F0E2
:1002CC00F0F970E07B68062B1DD14021384801F015
:1002DC00E8F94FF48071364801F0E3F94FF40071FE
:1002EC00334801F0DEF94FF48061314801F0D9F95F
:1002FC004FF400612E4801F0D4F94FF480512C4892
:10030C0001F0CFF94FE07B68072B0DD14021284835
:10031C0001F0C7F98021264801F0C3F94FF4807130
:10032C00234801F0BEF93EE07B68082B21D1402127
:10033C001F4801F0B6F980211D4801F0B2F94FF4C5
:10034C0080711B4801F0ADF94FF40071184801F0B1
:10035C00A8F94FF48061164801F0A3F94FF400613D
:10036C00134801F09EF94FF48051114801F099F9AE
:10037C0019E07B68092B16D140210D4801F091F949
:10038C0080210B4801F08DF94FF48071084801F081
:10039C0088F94FF40061064801F083F94FF480515D
:1003AC00034801F07EF900BF0837BD4680BD00BF91
:1003BC000008014080B582B000AF786001220821AE
:1003CC008D4801F056F9012210218B4801F051F9AA
:1003DC0001222021884801F04CF901224021864855
:1003EC0001F047F901228021834801F042F90122F2
:1003FC004FF48071804801F03CF901224FF40071F8
:10040C007D4801F036F97B68002B19D108217A4818
:10041C0001F047F91021784801F043F92021764882
:10042C0001F03FF94021744801F03BF980217248FA
:10043C0001F037F94FF480716F4801F032F9D6E0D2
:10044C007B68012B08D110216B4801F02AF920217F
:10045C00694801F026F9CAE07B68022B15D1082106
:10046C00654801F01EF91021634801F01AF940218A
:10047C00614801F016F980215F4801F012F94FF440
:10048C0000715D4801F00DF9B1E07B68032B15D1CB
:10049C000821594801F005F91021574801F001F9DC
:1004AC002021554801F0FDF84021534801F0F9F89E
:1004BC004FF40071504801F0F4F898E07B68042B7D
:1004CC0012D110214C4801F0ECF820214A4801F0DF
:1004DC00E8F84FF48071484801F0E3F84FF40071EC
:1004EC00454801F0DEF882E07B68052B16D1082127
:1004FC00414801F0D6F820213F4801F0D2F84021C4
:10050C003D4801F0CEF84FF480713B4801F0C9F83A
:10051C004FF40071384801F0C4F868E07B68062B92
:10052C001AD10821344801F0BCF82021324801F0DE
:10053C00B8F84021304801F0B4F880212E4801F081
:10054C00B0F84FF480712C4801F0ABF84FF4007107
:10055C00294801F0A6F84AE07B68072B0CD108214A
:10056C00254801F09EF81021234801F09AF820212B
:10057C00214801F096F83AE07B68082B1ED108213F
:10058C001D4801F08EF810211B4801F08AF820213B
:10059C00194801F086F84021174801F082F88021B3
:1005AC00154801F07EF84FF48071134801F079F88A
:1005BC004FF40071104801F074F818E07B68092BB7
:1005CC0015D108210C4801F06CF810210A4801F0F3
:1005DC0068F82021084801F064F84FF4807106484F
:1005EC0001F05FF84FF40071034801F05AF800BFB6
:1005FC000837BD4680BD00BF000C014080B584B0FB
:10060C0000AFF860B9607A60FB68002B03D0FB6820
:10061C00012B04D007E0B868FFF792FD03E078687F
:10062C00FFF78EFD00BF00BF1037BD4680BD80B503
:10063C0084B000AFF860B9607A60FB68002B03D01F
:10064C00FB68012B04D007E0B868FFF7B3FE03E0AA
:10065C007868FFF7AFFE00BF00BF1037BD4680BD06
:10066C0090B583B000AF0023FB7142E0FA79FB79BF
:10067C002449895C244AD154FC790121234800F097
:10068C00E1FF03461A461F4B1A55FB791D4AD25CF3
:10069C00FB791D49CB5C9A4228D1FA79FB7919492F
:1006AC00895C1B4AD154FB79194AD35C002B14D1B9
:1006BC00FB79184A32F81330632B09D8FB79154AA9
:1006CC0032F81320013291B2124A22F813100DE0C5
:1006DC00FB79114A0121D15408E0FB790D4A002124
:1006EC0022F81310FB790C4A0021D154FB79013309
:1006FC00FB71FB79002BB9D000BF00BF0C37BD4696
:10070C0090BD00BF380000203C000020000C0140D0
:10071C0034000020440000204000002080B500AFD1
:10072C0000F0A6FC00F00AF800F090F800F042F897
:10073C00014801F0FBFBFEE76800002080B590B09B
:10074C0000AF07F1180328220021184601F0AAFF78
:10075C003B1D00221A605A609A60DA601A6102230B
:10076C00BB610123BB621023FB6200237B6307F197
:10077C001803184600F0AEFF0346002B01D000F022
:10078C00C7F80F237B600023BB600023FB600023B2
:10079C003B6100237B613B1D0021184601F01AFAD6
:1007AC000346002B01D000F0B3F800BF4037BD4624
:1007BC0080BD000080B586B000AF07F108030022B1
:1007CC001A605A609A60DA603B4600221A605A60DE
:1007DC001D4B4FF080421A601B4B41F63F725A6022
:1007EC00194B00229A60184B0922DA60164B002232
:1007FC001A61154B00229A61134801F047FB03461E
:10080C00002B01D000F084F84FF48053BB6007F14B
:10081C00080319460C4801F0DDFC0346002B01D0FF
:10082C0000F076F800233B6000237B603B461946C2
:10083C00054801F0A9FE0346002B01D000F068F832
:10084C0000BF1837BD4680BD6800002080B586B05B
:10085C0000AF07F1080300221A605A609A60DA6050
:10086C00284B9B69274A43F004039361254B9B69F2
:10087C0003F004037B607B68224B9B69214A43F0A5
:10088C00080393611F4B9B6903F008033B603B68B3
:10089C0000224FF6FF711C4800F0EBFE00224FF2D5
:1008AC00F8311A4800F0E5FE4FF6FF73BB600123E8
:1008BC00FB6000233B6102237B6107F108031946AF
:1008CC00114800F045FD0123BB600023FB600023B1
:1008DC003B6107F1080319460C4800F039FD4FF253
:1008EC00F833BB600123FB6000233B6102237B6177
:1008FC0007F108031946054800F02AFD00BF183718
:10090C00BD4680BD0010024000080140000C0140B3
:10091C0080B400AF72B600BFFEE7000080B485B0B3
:10092C0000AF154B9B69144A43F001039361124BC2
:10093C009B6903F00103BB60BB680F4BDB690E4A7C
:10094C0043F08053D3610C4BDB6903F080537B6025
:10095C007B680A4B5B68FB60FB6823F0E063FB6021
:10096C00FB6843F08063FB60044AFB68536000BF84
:10097C001437BD4680BC7047001002400000014097
:10098C0080B584B000AF78607B681B68B3F1804F92
:10099C0013D10C4BDB690B4A43F00103D361094BB8
:1009AC00DB6903F00103FB60FB68002200211C20C3
:1009BC0000F097FC1C2000F0B0FC00BF1037BD46C7
:1009CC0080BD00BF0010024080B400AFFEE780B4D1
:1009DC0000AFFEE780B400AFFEE780B400AFFEE7E7
:1009EC0080B400AFFEE780B400AF00BFBD4680BC52
:1009FC00704780B400AF00BFBD4680BC704780B468
:100A0C0000AF00BFBD4680BC704780B500AF00F0A2
:100A1C0075FB00BF80BD000080B500AF024801F03F
:100A2C00D1FA00BF80BD00BF6800002080B400AFC9
:100A3C0000BFBD4680BC704780B582B000AF786007
:100A4C00944B1B68002B48D1934B1B68934A12683C
:100A5C0002FB03F3904A1360914B1B688F4A126898
:100A6C0002FB03F38E4A13608C4B1A6813461B016E
:100A7C009B1A8C4A1360894B1A6813469B001344CB
:100A8C005B001A46884B1A60844B1A6813469B000D
:100A9C001344864A1360864B0F221A60854B0A2238
:100AAC001A60854B05221A60844B0F221A60844B06
:100ABC000A221A60834B05221A60784B1B68002BA4
:100ACC0000DA03339B101A467F4B1A607E4B1B686F
:100ADC007E4A13606F4B01221A606F4B1A68704B81
:100AEC001B689A4218DC6E4B1A686E4B1B68D21A44
:100AFC00694B1B689A420FDA00220121744800F0FE
:100B0C00B8FD01220221724800F0B3FD012204213C
:100B1C006F4800F0AEFD43E0614B1A68614B1B68F7
:100B2C00D21A5D4B1B689A421BDB5D4B1A685D4BFE
:100B3C001B68D21A5C4B1B68D21A574B1B689A4223
:100B4C000FDA01220121624800F093FD01220221FB
:100B5C005F4800F08EFD002204215D4800F089FD05
:100B6C001EE04F4B1A684F4B1B68D21A4E4B1B683A
:100B7C00D21A494B1B689A4212DB474B1B68002B5D
:100B8C000EDD01220121524800F073FD00220221EA
:100B9C004F4800F06EFD012204214D4800F069FD24
:100BAC003D4B1B683D4A126893FBF2F102FB01F2CC
:100BBC009B1A002B40F0BE80464B1B68022B2ED09C
:100BCC00022B40DC002B02D0012B14D03BE0384B25
:100BDC001B68414A1360364B1B68013B344A136057
:100BEC00334B1B68002B30D13A4B01221A60304B2F
:100BFC000F221A6029E02F4B1B68374A13602D4BCC
:100C0C001B68013B2B4A13602A4B1B68002B1ED11F
:100C1C00304B02221A60274B0A221A6017E0264B2F
:100C2C001B682D4A1360244B1B68013B224A13603E
:100C3C00214B1B68002B0CD1264B00221A601E4B3B
:100C4C0005221A6005E000BF04E000BF02E000BF0F
:100C5C0000E000BF214B1B68022B57D0022B6BDC32
:100C6C00002B02D0012B3DD066E0154B1B681C4AB3
:100C7C001360134B1B68013B114A1360104B1B682C
:100C8C00002B5BD1154B01221A600D4B0A221A6006
:100C9C0054E000BF480000200C000020040000209D
:100CAC0008000020C4000020BC000020B40000207C
:100CBC00B8000020D0000020D4000020C800002084
:100CCC00CC000020B0000020C00000205C00002000
:100CDC00000801404C00002054000020500000206F
:100CEC0058000020924B1B68924A1360904B1B6873
:100CFC00013B8F4A13608E4B1B68002B20D18E4B0F
:100D0C0002221A608A4B05221A6019E08B4B1B6871
:100D1C00884A1360894B1B68013B884A1360874BD8
:100D2C001B68002B0ED1844B00221A60834B0F22C0
:100D3C001A6007E000BF06E000BF04E000BF02E05D
:100D4C0000BF00E000BF7E4B1A687E4B1B689A42C6
:100D5C0018DC7C4B1A687C4B1B68D21A784B1B68CE
:100D6C009A420FDA01220821784800F082FC012215
:100D7C001021764800F07DFC00222021734800F001
:100D8C0078FC43E06F4B1A686F4B1B68D21A6C4BA4
:100D9C001B689A421BDB6B4B1A686D4B1B68D21A93
:100DAC00694B1B68D21A664B1B689A420FDA0122F8
:100DBC000821664800F05DFC00221021634800F019
:100DCC0058FC01222021614800F053FC1EE05D4BD1
:100DDC001A685F4B1B68D21A5B4B1B68D21A584BB4
:100DEC001B689A4212DB564B1B68002B0EDD00224F
:100DFC000821564800F03DFC01221021534800F018
:100E0C0038FC01222021514800F033FC514B1B6867
:100E1C00002B00F3D980504B1B68002B02D0012B08
:100E2C002AD053E000224FF480514C4800F021FCB2
:100E3C0001224FF40051494800F01BFC484B1B6841
:100E4C00484A82FB03129210DB17D01A444B1A68E3
:100E5C00444B83FB02139910D317C91A0B469B0002
:100E6C000B445B00D11A0A4601460020FFF7C6FB73
:100E7C00394B01221A6029E001224FF48051374886
:100E8C0000F0F7FB00224FF40051344800F0F1FB66
:100E9C00334B1B68334A82FB03129210DB17D01AB8
:100EAC002F4B1A682F4B83FB02139910D317C91AB7
:100EBC000B469B000B445B00D11A0A4601460120ED
:100ECC00FFF79CFB244B00221A6000BF264B1B68CB
:100EDC00002B02D0012B49D072E000224FF480414C
:100EEC001E4800F0C6FB01224FF400411B4800F0E5
:100EFC00C0FB104B1B681B4A82FB03129210DB17C2
:100F0C00D01A0C4B1A68174B83FB02139910D3178A
:100F1C00C91A0B469B000B445B00D11A0A460146CA
:100F2C000020FFF784FB104B01221A6048E000BF41
:100F3C00B00000205800002050000020C800002005
:100F4C000C00002008000020BC000020000801401C
:100F5C00B40000205C00002060000020000C014068
:100F6C0054000020676666666400002001224FF47E
:100F7C008041244800F07DFB00224FF400412148C1
:100F8C0000F077FB204B1B68204A82FB0312921067
:100F9C00DB17D01A1C4B1A681C4B83FB02139910DD
:100FAC00D317C91A0B469B000B445B00D11A0A4697
:100FBC0001460120FFF73BFB154B00221A6000BFD6
:100FCC00144B1B68144A1360144B1B68002B03DC76
:100FDC00134B1B68114A13600F4B1B68013B0E4AE5
:100FEC0013600E4B1B68013B0C4A13607B681B683B
:100FFC00B3F1804F01D1FFF733FB00BF0837BD467B
:10100C0080BD00BF000C014058000020676666667A
:10101C0064000020C00000205C0000200C000020B8
:10102C0008000020FFF702FD0B480C490C4A002376
:10103C0002E0D458C4500433C4188C42F9D3094A82
:10104C00094C002301E013600432A242FBD301F0EF
:10105C0005FBFFF763FB7047000000201800002021
:10106C000427000818000020DC000020FEE7000028
:10107C0080B500AF084B1B68074A43F010031360A0
:10108C00032000F023F90F2000F008F8FFF746FCCE
:10109C000023184680BD00BF0020024080B582B0FE
:1010AC0000AF7860124B1A68124B1B7819464FF43C
:1010BC007A73B3FBF1F3B2FBF3F3184600F03BF990
:1010CC000346002B01D001230EE07B680F2B0AD8BE
:1010DC00002279684FF0FF3000F003F9064A7B6874
:1010EC001360002300E0012318460837BD4680BD7D
:1010FC0000000020140000201000002080B400AF7D
:10110C00054B1B781A46054B1B681344034A1360A6
:10111C0000BFBD4680BC704714000020D8000020E2
:10112C0080B400AF024B1B681846BD4680BC7047AC
:10113C00D800002080B485B000AF78607B6803F0E5
:10114C000703FB600C4BDB68BB60BA684FF6FF0310
:10115C001340BB60FB681A02BB68134343F0BF63C8
:10116C0043F40033BB60044ABB68D36000BF143740
:10117C00BD4680BC704700BF00ED00E080B400AFFE
:10118C00044BDB681B0A03F007031846BD4680BC02
:10119C00704700BF00ED00E080B483B000AF0346A1
:1011AC00FB7197F90730002B0BDBFB7903F01F0267
:1011BC00064997F907305B09012000FA02F241F861
:1011CC00232000BF0C37BD4680BC704700E100E017
:1011DC0080B483B000AF03463960FB7197F90730D8
:1011EC00002B0ADB3B68DAB20C4997F90730120185
:1011FC00D2B20B4483F800230AE03B68DAB2084908
:10120C00FB7903F00F03043B1201D2B20B441A76A4
:10121C0000BF0C37BD4680BC704700BF00E100E04A
:10122C0000ED00E080B489B000AFF860B9607A607E
:10123C00FB6803F00703FB61FB69C3F10703042B95
:10124C0028BF0423BB61FB690433062B02D9FB695D
:10125C00033B00E000237B614FF0FF32BB6902FAD5
:10126C0003F3DA43BB681A407B699A404FF0FF31B5
:10127C007B6901FA03F3D9437B680B40134318468F
:10128C002437BD4680BC704780B582B000AF786013
:10129C007B68013BB3F1807F01D301230FE00A4A45
:1012AC007B68013B53600F214FF0FF30FFF790FF3D
:1012BC00054B00229A60044B07221A600023184643
:1012CC000837BD4680BD00BF10E000E080B582B09D
:1012DC0000AF78607868FFF72DFF00BF0837BD4678
:1012EC0080BD80B586B000AF0346B9607A60FB73F1
:1012FC0000237B61FFF742FF78617A68B9687869EF
:10130C00FFF790FF024697F90F3011461846FFF78A
:10131C005FFF00BF1837BD4680BD80B582B000AFFF
:10132C000346FB7197F907301846FFF735FF00BFEE
:10133C000837BD4680BD80B582B000AF7860786854
:10134C00FFF7A2FF034618460837BD4680BD0000D4
:10135C0080B48BB000AF7860396000237B620023CF
:10136C003B6248E101227B6A02FA03F3FB613B68B2
:10137C001B68FA691340BB61BA69FB699A4240F079
:10138C0037813B685B68A34A93425ED0A14A934283
:10139C0075D8A14A934258D09F4A93426FD89F4A1E
:1013AC00934252D09D4A934269D89D4A93424CD065
:1013BC009B4A934263D89B4A934246D0994A9342A4
:1013CC005DD8122B2AD8122B59D801A252F823F02F
:1013DC005714000831140008431400088514000841
:1013EC008B1400088B1400088B1400088B14000855
:1013FC008B1400088B1400088B1400088B14000845
:10140C008B1400088B1400088B1400088B14000834
:10141C008B140008391400084D140008824A9342BA
:10142C0013D02CE03B68DB683B6229E03B68DB684F
:10143C0004333B6224E03B68DB6808333B621FE00B
:10144C003B68DB680C333B621AE03B689B68002B03
:10145C0002D104233B6213E03B689B68012B05D14E
:10146C0008233B627B68FA691A6109E008233B6236
:10147C007B68FA695A6103E000233B6200E000BF1D
:10148C00BB69FF2B01D87B6801E07B6804337B616F
:10149C00BB69FF2B02D87B6A9B0002E07B6A083B8E
:1014AC009B003B617B691A680F213B6901FA03F3CE
:1014BC00DB431A40396A3B6901FA03F31A437B692F
:1014CC001A603B685B6803F08053002B00F090803F
:1014DC00564B9B69554A43F001039361534B9B69EF
:1014EC0003F00103BB60BB68514A7B6A9B08023363
:1014FC0052F82330FB607B6A03F003039B000F223E
:10150C0002FA03F3DB43FA681340FB607B68494A39
:10151C0093420DD07B68484A934207D07B68474A78
:10152C00934201D1022304E0032302E0012300E0F3
:10153C0000237A6A02F0030292009340FA68134384
:10154C00FB603B497B6A9B080233FA6841F8232015
:10155C003B685B6803F48013002B06D0384B9A6809
:10156C003749BB6913438B6006E0354B9A68BB69FE
:10157C00DB43334913408B603B685B6803F4001317
:10158C00002B06D02E4BDA682D49BB691343CB6078
:10159C0006E02B4BDA68BB69DB4329491340CB606F
:1015AC003B685B6803F40033002B06D0244B5A686D
:1015BC002349BB6913434B6006E0214B5A68BB6956
:1015CC00DB431F4913404B603B685B6803F480337B
:1015DC00002B06D01A4B1A681949BB6913430B60D0
:1015EC0006E0174B1A68BB69DB43154913400B60C7
:1015FC007B6A01337B623B681A687B6A22FA03F3CD
:10160C00002B7FF4AFAE00BF00BF2C37BD4680BCB3
:10161C00704700BF00003210000031100000221093
:10162C0000002110000012100000111000100240E8
:10163C000000014000080140000C01400010014076
:10164C000004014080B485B000AF78600B467B800D
:10165C007B689A687B881340002B02D00123FB73B4
:10166C0001E00023FB73FB7B18461437BD4680BC9E
:10167C00704780B483B000AF78600B467B80134614
:10168C007B707B78002B03D07A887B681A6103E02F
:10169C007B881A047B681A6100BF0C37BD4680BC7E
:1016AC00704780B485B000AF78600B467B807B6858
:1016BC00DB68FB607A88FB6813401A04FB68D9432B
:1016CC007B880B401A437B681A6100BF1437BD46F8
:1016DC0080BC704780B586B000AF78607B68002B0B
:1016EC0001D101236CE27B681B6803F00103002B22
:1016FC0000F08780924B5B6803F00C03042B0CD03A
:10170C008F4B5B6803F00C03082B12D18C4B5B687E
:10171C0003F48033B3F5803F0BD1894B1B6803F482
:10172C000033002B6CD07B685B68002B68D10123E5
:10173C0046E27B685B68B3F5803F06D1804B1B6843
:10174C007F4A43F4803313602EE07B685B68002B88
:10175C000CD17B4B1B687A4A23F480331360784B93
:10176C001B68774A23F4802313601DE07B685B6859
:10177C00B3F5A02F0CD1724B1B68714A43F4802334
:10178C0013606F4B1B686E4A43F4803313600BE09D
:10179C006B4B1B686A4A23F480331360684B1B68DD
:1017AC00674A23F4802313607B685B68002B13D09B
:1017BC00FFF7B6FC386108E0FFF7B2FC02463B6964
:1017CC00D31A642B01D90323FAE15D4B1B6803F494
:1017DC000033002BF0D014E0FFF7A2FC386108E0D6
:1017EC00FFF79EFC02463B69D31A642B01D90323F5
:1017FC00E6E1534B1B6803F40033002BF0D100E0FF
:10180C0000BF7B681B6803F00203002B63D04C4BBA
:10181C005B6803F00C03002B0BD0494B5B6803F0A7
:10182C000C03082B1CD1464B5B6803F48033002B54
:10183C0016D1434B1B6803F00203002B05D07B68C9
:10184C001B69012B01D00123BAE13D4B1B6823F02E
:10185C00F8027B685B69DB00394913430B603AE0A3
:10186C007B681B69002B20D0364B01221A60FFF7D6
:10187C0057FC386108E0FFF753FC02463B69D31A6A
:10188C00022B01D903239BE12D4B1B6803F00203B0
:10189C00002BF0D02A4B1B6823F0F8027B685B69A5
:1018AC00DB00274913430B6015E0264B00221A601E
:1018BC00FFF736FC386108E0FFF732FC02463B6963
:1018CC00D31A022B01D903237AE11D4B1B6803F0B9
:1018DC000203002BF0D17B681B6803F00803002B7C
:1018EC003AD07B689B69002B19D0174B01221A60E8
:1018FC00FFF716FC386108E0FFF712FC02463B6963
:10190C00D31A022B01D903235AE10D4B5B6A03F066
:10191C000203002BF0D0012000F09AFA1CE00A4BD5
:10192C0000221A60FFF7FCFB38610FE0FFF7F8FBB1
:10193C0002463B69D31A022B08D9032340E100BFAE
:10194C000010024000004242800442429E4B5B6AFF
:10195C0003F00203002BE9D17B681B6803F004033E
:10196C00002B00F0A6800023FB75974BDB6903F07E
:10197C008053002B0DD1944BDB69934A43F0805379
:10198C00D361914BDB6903F08053BB60BB680123CF
:10199C00FB758E4B1B6803F48073002B18D18B4B9B
:1019AC001B688A4A43F480731360FFF7B9FB3861F4
:1019BC0008E0FFF7B5FB02463B69D31A642B01D94B
:1019CC000323FDE0814B1B6803F48073002BF0D0E4
:1019DC007B68DB68012B06D17B4B1B6A7A4A43F090
:1019EC00010313622DE07B68DB68002B0CD1764B76
:1019FC001B6A754A23F001031362734B1B6A724A0C
:101A0C0023F0040313621CE07B68DB68052B0CD10C
:101A1C006D4B1B6A6C4A43F0040313626A4B1B6ADE
:101A2C00694A43F0010313620BE0674B1B6A664A79
:101A3C0023F001031362644B1B6A634A23F0040313
:101A4C0013627B68DB68002B15D0FFF769FB3861EC
:101A5C000AE0FFF765FB02463B69D31A41F2883274
:101A6C00934201D90323ABE0574B1B6A03F00203EB
:101A7C00002BEED014E0FFF753FB38610AE0FFF7C0
:101A8C004FFB02463B69D31A41F28832934201D98B
:101A9C00032395E04C4B1B6A03F00203002BEED1A1
:101AAC00FB7D012B05D1484BDB69474A23F0805362
:101ABC00D3617B68DB69002B00F08180424B5B6853
:101ACC0003F00C03082B61D07B68DB69022B46D139
:101ADC003F4B00221A60FFF723FB386108E0FFF749
:101AEC001FFB02463B69D31A022B01D9032367E083
:101AFC00354B1B6803F00073002BF0D17B681B6A1D
:101B0C00B3F5803F08D1304B5B6823F400327B681F
:101B1C009B682D4913434B602B4B5B6823F4741269
:101B2C007B68196A7B685B6A0B43274913434B60DC
:101B3C00274B01221A60FFF7F3FA386108E0FFF730
:101B4C00EFFA02463B69D31A022B01D9032337E083
:101B5C001D4B1B6803F00073002BF0D02FE01C4BC7
:101B6C0000221A60FFF7DCFA386108E0FFF7D8FAB8
:101B7C0002463B69D31A022B01D9032320E0124BF6
:101B8C001B6803F00073002BF0D118E07B68DB6955
:101B9C00012B01D1012313E00B4B5B68FB60FB684D
:101BAC0003F480327B681B6A9A4206D1FB6803F40B
:101BBC0070127B685B6A9A4201D0012300E000231B
:101BCC0018461837BD4680BD00100240007000401A
:101BDC006000424280B584B000AF786039607B68A9
:101BEC00002B01D10123D0E06A4B1B6803F00703E3
:101BFC003A689A4210D9674B1B6823F00702654973
:101C0C003B6813430B60634B1B6803F007033A6894
:101C1C009A4201D00123B8E07B681B6803F00203F1
:101C2C00002B20D07B681B6803F00403002B05D02D
:101C3C00594B5B68584A43F4E06353607B681B68FC
:101C4C0003F00803002B05D0534B5B68524A43F456
:101C5C0060535360504B5B6823F0F0027B689B68C9
:101C6C004D4913434B607B681B6803F00103002B49
:101C7C0040D07B685B68012B07D1474B1B6803F492
:101C8C000033002B15D101237FE07B685B68022BAE
:101C9C0007D1414B1B6803F00073002B09D10123C2
:101CAC0073E03D4B1B6803F00203002B01D10123B1
:101CBC006BE0394B5B6823F003027B685B68364949
:101CCC0013434B60FFF72CFAF8600AE0FFF728FA91
:101CDC000246FB68D31A41F28832934201D903239E
:101CEC0053E02D4B5B6803F00C027B685B689B0038
:101CFC009A42EBD1274B1B6803F007033A689A42D0
:101D0C0010D2244B1B6823F0070222493B68134373
:101D1C000B60204B1B6803F007033A689A4201D012
:101D2C00012332E07B681B6803F00403002B08D00E
:101D3C00194B5B6823F4E0627B68DB68164913433C
:101D4C004B607B681B6803F00803002B09D0124B17
:101D5C005B6823F460527B681B69DB000E491343FC
:101D6C004B6000F021F802460B4B5B681B0903F03B
:101D7C000F030A49CB5C22FA03F3094A1360094B9F
:101D8C001B681846FFF78AF9002318461037BD4622
:101D9C0080BD00BF0020024000100240D826000881
:101DAC00000000201000002080B487B000AF00239A
:101DBC00FB600023BB6000237B6100237B6000235E
:101DCC003B611E4B5B68FB60FB6803F00C03042B50
:101DDC0002D0082B03D027E0194B3B6127E0FB68AE
:101DEC009B0C03F00F03174AD35C7B60FB6803F476
:101DFC008033002B10D0114B5B685B0C03F001039C
:101E0C00114AD35CBB607B680D4A02FB03F2BB68D2
:101E1C00B2FBF3F37B6104E07B680C4A02FB03F337
:101E2C007B617B693B6102E0054B3B6100BF3B6919
:101E3C0018461C37BD4680BC704700BF00100240DE
:101E4C0000127A00E8260008F826000800093D0078
:101E5C0080B485B000AF78600A4B1B680A4AA2FBBD
:101E6C0003235B0A7A6802FB03F3FB6000BFFB6889
:101E7C005A1EFA60002BF9D100BF00BF1437BD46C3
:101E8C0080BC704700000020D34D621080B582B03A
:101E9C0000AF78607B68002B01D1012341E07B68A7
:101EAC0093F83D30DBB2002B06D17B68002283F81F
:101EBC003C207868FEF764FD7B68022283F83D20A5
:101ECC007B681A687B6804331946104600F06EFA7A
:101EDC007B68012283F846207B68012283F83E2030
:101EEC007B68012283F83F207B68012283F8402025
:101EFC007B68012283F841207B68012283F8422011
:101F0C007B68012283F843207B68012283F84420FC
:101F1C007B68012283F845207B68012283F83D20F1
:101F2C00002318460837BD4680BD000080B485B03C
:101F3C0000AF78607B6893F83D30DBB2012B01D0A9
:101F4C00012335E07B68022283F83D207B681B6807
:101F5C00DA687B681B6842F00102DA607B681B68F8
:101F6C00164A934209D07B681B68B3F1804F04D0AA
:101F7C007B681B68124A934211D17B681B689B6873
:101F8C0003F00703FB60FB68062B10D07B681B6813
:101F9C001A687B681B6842F001021A6007E07B68D4
:101FAC001B681A687B681B6842F001021A600023E8
:101FBC0018461437BD4680BC704700BF002C01404A
:101FCC000004004080B582B000AF78607B681B686D
:101FDC001B6903F00203022B22D17B681B68DB68B0
:101FEC0003F00203022B1BD17B681B686FF002020B
:101FFC001A617B6801221A777B681B689B6903F066
:10200C000303002B03D0786800F0B4F905E078687E
:10201C0000F0A7F9786800F0B6F97B6800221A770F
:10202C007B681B681B6903F00403042B22D17B68BB
:10203C001B68DB6803F00403042B1BD17B681B6853
:10204C006FF004021A617B6802221A777B681B68A6
:10205C009B6903F44073002B03D0786800F08AF975
:10206C0005E0786800F07DF9786800F08CF97B6801
:10207C0000221A777B681B681B6903F00803082B86
:10208C0022D17B681B68DB6803F00803082B1BD18B
:10209C007B681B686FF008021A617B6804221A7750
:1020AC007B681B68DB6903F00303002B03D07868A3
:1020BC0000F060F905E0786800F053F9786800F0FA
:1020CC0062F97B6800221A777B681B681B6903F036
:1020DC001003102B22D17B681B68DB6803F0100304
:1020EC00102B1BD17B681B686FF010021A617B6888
:1020FC0008221A777B681B68DB6903F44073002B9A
:10210C0003D0786800F036F905E0786800F029F91A
:10211C00786800F038F97B6800221A777B681B68B6
:10212C001B6903F00103012B0ED17B681B68DB6874
:10213C0003F00103012B07D17B681B686FF00102D0
:10214C001A617868FEF778FC7B681B681B6903F0E2
:10215C008003802B0ED17B681B68DB6803F0800347
:10216C00802B07D17B681B686FF080021A6178683E
:10217C0000F06BFA7B681B681B6903F04003402B73
:10218C000ED17B681B68DB6803F04003402B07D142
:10219C007B681B686FF040021A61786800F0FCF8ED
:1021AC007B681B681B6903F02003202B0ED17B6816
:1021BC001B68DB6803F02003202B07D17B681B68AE
:1021CC006FF020021A61786800F036FA00BF083709
:1021DC00BD4680BD80B584B000AF78603960002307
:1021EC00FB737B6893F83C30012B01D10223B4E0E4
:1021FC007B68012283F83C207B68022283F83D2017
:10220C007B681B689B68BB60BB6823F07703BB6073
:10221C00BB6823F47F43BB607B681B68BA689A6019
:10222C003B681B68B3F5005F3ED0B3F5005F00F26E
:10223C008780B3F5805F00F08680B3F5805F7FD830
:10224C00702B1AD0702B7BD8602B50D0602B77D88A
:10225C00502B3CD0502B73D8402B58D0402B6FD8E0
:10226C00302B64D0302B6BD8202B60D0202B67D830
:10227C00002B5CD0102B5AD062E07B6818683B684E
:10228C0099683B685A683B68DB6800F05EF97B68CC
:10229C001B689B68BB60BB6843F07703BB607B68C3
:1022AC001B68BA689A604FE07B6818683B6899684D
:1022BC003B685A683B68DB6800F047F97B681B6831
:1022CC009A687B681B6842F480429A603CE07B68A9
:1022DC0018683B6859683B68DB681A4600F0BEF822
:1022EC007B681B685021184600F015F92CE07B68C0
:1022FC0018683B6859683B68DB681A4600F0DCF8E4
:10230C007B681B686021184600F005F91CE07B68AF
:10231C0018683B6859683B68DB681A4600F09EF801
:10232C007B681B684021184600F0F5F80CE07B68D0
:10233C001A683B681B681946104600F0ECF803E07D
:10234C000123FB7300E000BF7B68012283F83D2072
:10235C007B68002283F83C20FB7B18461037BD4677
:10236C0080BD80B483B000AF786000BF0C37BD4631
:10237C0080BC704780B483B000AF786000BF0C376E
:10238C00BD4680BC704780B483B000AF786000BF9E
:10239C000C37BD4680BC704780B483B000AF78600A
:1023AC0000BF0C37BD4680BC7047000080B485B0C0
:1023BC0000AF786039607B681B68FB607B68254ADE
:1023CC00934207D07B68B3F1804F03D07B68224ADD
:1023DC00934208D1FB6823F07003FB603B685B6899
:1023EC00FA681343FB607B681A4A934207D07B68F8
:1023FC00B3F1804F03D07B68174A934208D1FB6836
:10240C0023F44073FB603B68DB68FA681343FB60A2
:10241C00FB6823F080023B685B691343FB607B68BD
:10242C00FA681A603B689A687B68DA623B681A68DB
:10243C007B689A627B68074A934203D13B681A69AE
:10244C007B681A637B6801225A6100BF1437BD4652
:10245C0080BC7047002C01400004004080B487B061
:10246C0000AFF860B9607A60FB681B6A7B61FB683F
:10247C001B6A23F00102FB681A62FB689B693B61D3
:10248C003B6923F0F0033B617B681B013A69134302
:10249C003B617B6923F00A037B617A69BB68134358
:1024AC007B61FB683A699A61FB687A691A6200BFC2
:1024BC001C37BD4680BC704780B487B000AFF86055
:1024CC00B9607A60FB681B6A7B61FB681B6A23F04E
:1024DC001002FB681A62FB689B693B613B6923F441
:1024EC0070433B617B681B033A6913433B617B6917
:1024FC0023F0A0037B61BB681B017A6913437B61EA
:10250C00FB683A699A61FB687A691A6200BF1C37EA
:10251C00BD4680BC704780B485B000AF7860396030
:10252C007B689B68FB60FB6823F07003FB603A6878
:10253C00FB68134343F00703FB607B68FA689A60FF
:10254C0000BF1437BD4680BC704780B487B000AF65
:10255C00F860B9607A603B60FB689B687B617B6963
:10256C0023F47F437B613B681A027B681A43BB6888
:10257C0013437A6913437B61FB687A699A6000BFE5
:10258C001C37BD4680BC704780B485B000AF786006
:10259C0039607B6893F83C30012B01D1022341E078
:1025AC007B68012283F83C207B68022283F83D2063
:1025BC007B681B685B68FB607B681B689B68BB6007
:1025CC00FB6823F07003FB603B681B68FA681343DD
:1025DC00FB607B681B68FA685A607B681B68144A4E
:1025EC00934209D07B681B68B3F1804F04D07B68A1
:1025FC001B68104A93420CD1BB6823F08003BB606C
:10260C003B685B68BA681343BB607B681B68BA683D
:10261C009A607B68012283F83D207B68002283F856
:10262C003C20002318461437BD4680BC704700BFC1
:10263C00002C01400004004080B483B000AF7860EF
:10264C0000BF0C37BD4680BC704780B483B000AF70
:10265C00786000BF0C37BD4680BC704770B5002653
:10266C000C4D0D4C641BA410A64209D100F022F8AD
:10267C0000260A4D0A4C641BA410A64205D170BD5D
:10268C0055F8043B98470136EEE755F8043B98475C
:10269C000136F2E7FC260008FC260008FC260008A0
:1026AC000027000803460244934200D1704703F808
:1026BC00011BF9E7F8B500BFF8BC08BC9E46704793
:0C26CC00F8B500BFF8BC08BC9E46704783
:1026D80000000000000000000102030406070809CA
:1026E80002030405060708090A0B0C0D0E0F10104B
:0426F80001020000DB
:0426FC0031010008A0
:042700000D010008BF
:102704000024F400640000001E0000001E0000000D
:082714001000000001000000AC
:0400000508001031AE
:00000001FF
