:020000040800F2
:1000000000280020F91C00083D0C0008430C0008E3
:10001000490C00084F0C0008550C000800000000B7
:100020000000000000000000000000005B0C000861
:10003000670C000800000000730C00087F0C00082B
:10004000411D0008411D0008411D0008411D000818
:10005000411D0008411D0008411D0008411D000808
:10006000411D0008411D0008411D0008411D0008F8
:10007000411D0008411D0008411D0008411D0008E8
:10008000411D0008411D0008411D0008411D0008D8
:10009000411D0008411D0008411D0008411D0008C8
:1000A000411D0008411D0008411D0008411D0008B8
:1000B0008D0C0008411D000800000000411D0008D3
:1000C000411D00080000000000000000411D000864
:1000D00000000000411D0008411D00080000000054
:1000E000411D0008411D0008411D000800000000DE
:1000F0000000000000000000000000000000000000
:0C01000000000000000000005FF808F1A3
:10010C0010B5054C237833B9044B13B10448AFF345
:10011C0000800123237010BD30000020000000007F
:10012C008833000808B5034B1BB103490348AFF3F0
:10013C00008008BD00000000340000208833000857
:10014C0080B582B000AF786001224021984802F05F
:10015C00F4F801228021964802F0EFF801224FF4C6
:10016C008071934802F0E9F801224FF40071904835
:10017C0002F0E3F801224FF480618D4802F0DDF8C3
:10018C0001224FF400618A4802F0D7F801224FF4A3
:10019C008051874802F0D1F87B68002B1CD140219C
:1001AC00834802F0E2F88021814802F0DEF84FF437
:1001BC0080717F4802F0D9F84FF400717C4802F04E
:1001CC00D4F84FF480617A4802F0CFF84FF4006114
:1001DC00774802F0CAF8E6E07B68012B09D1802150
:1001EC00734802F0C2F84FF48071714802F0BDF808
:1001FC00D9E07B68022B17D140216D4802F0B5F88D
:10020C0080216B4802F0B1F84FF40071684802F09D
:10021C00ACF84FF48061664802F0A7F84FF48051B7
:10022C00634802F0A2F8BEE07B68032B17D1402193
:10023C005F4802F09AF880215D4802F096F84FF47E
:10024C0080715B4802F091F84FF40071584802F04D
:10025C008CF84FF48051564802F087F8A3E07B6885
:10026C00042B13D18021524802F07FF84FF4807197
:10027C004F4802F07AF84FF400614D4802F075F8DF
:10028C004FF480514A4802F070F88CE07B68052BE3
:10029C0018D14021464802F068F84FF48071444868
:1002AC0002F063F84FF40071414802F05EF84FF42D
:1002BC0000613F4802F059F84FF480513C4802F07D
:1002CC0054F870E07B68062B1DD14021384802F0B1
:1002DC004CF84FF48071364802F047F84FF4007137
:1002EC00334802F042F84FF48061314802F03DF897
:1002FC004FF400612E4802F038F84FF480512C482E
:10030C0002F033F84FE07B68072B0DD140212848D1
:10031C0002F02BF88021264802F027F84FF4807168
:10032C00234802F022F83EE07B68082B21D14021C3
:10033C001F4802F01AF880211D4802F016F84FF4FD
:10034C0080711B4802F011F84FF40071184802F04C
:10035C000CF84FF48061164802F007F84FF4006176
:10036C00134802F002F84FF48051114801F0FDFFE0
:10037C0019E07B68092B16D140210D4801F0F5FFDF
:10038C0080210B4801F0F1FF4FF48071084801F017
:10039C00ECFF4FF40061064801F0E7FF4FF4805189
:1003AC00034801F0E2FF00BF0837BD4680BD00BF27
:1003BC000008014080B582B000AF786001220821AE
:1003CC008D4801F0BAFF012210218B4801F0B5FFD6
:1003DC0001222021884801F0B0FF012240218648EB
:1003EC0001F0ABFF01228021834801F0A6FF01221E
:1003FC004FF48071804801F0A0FF01224FF400718E
:10040C007D4801F09AFF7B68002B19D108217A48AE
:10041C0001F0ABFF1021784801F0A7FF20217648AE
:10042C0001F0A3FF4021744801F09FFF8021724826
:10043C0001F09BFF4FF480716F4801F096FFD6E0FE
:10044C007B68012B08D110216B4801F08EFF202115
:10045C00694801F08AFFCAE07B68022B15D108219C
:10046C00654801F082FF1021634801F07EFF4021B6
:10047C00614801F07AFF80215F4801F076FF4FF46C
:10048C0000715D4801F071FFB1E07B68032B15D161
:10049C000821594801F069FF1021574801F065FF08
:1004AC002021554801F061FF4021534801F05DFFC8
:1004BC004FF40071504801F058FF98E07B68042B12
:1004CC0012D110214C4801F050FF20214A4801F074
:1004DC004CFF4FF48071484801F047FF4FF4007116
:1004EC00454801F042FF82E07B68052B16D10821BC
:1004FC00414801F03AFF20213F4801F036FF4021EE
:10050C003D4801F032FF4FF480713B4801F02DFF64
:10051C004FF40071384801F028FF68E07B68062B27
:10052C001AD10821344801F020FF2021324801F073
:10053C001CFF4021304801F018FF80212E4801F0AB
:10054C0014FF4FF480712C4801F00FFF4FF4007131
:10055C00294801F00AFF4AE07B68072B0CD10821DF
:10056C00254801F002FF1021234801F0FEFE202156
:10057C00214801F0FAFE3AE07B68082B1ED10821D5
:10058C001D4801F0F2FE10211B4801F0EEFE202167
:10059C00194801F0EAFE4021174801F0E6FE8021DF
:1005AC00154801F0E2FE4FF48071134801F0DDFEB6
:1005BC004FF40071104801F0D8FE18E07B68092B4D
:1005CC0015D108210C4801F0D0FE10210A4801F089
:1005DC00CCFE2021084801F0C8FE4FF4807106487B
:1005EC0001F0C3FE4FF40071034801F0BEFE00BFE2
:1005FC000837BD4680BD00BF000C014080B584B0FB
:10060C0000AFF860B9607A60FB68002B03D0FB6820
:10061C00012B04D007E0B868FFF792FD03E078687F
:10062C00FFF78EFD00BF00BF1037BD4680BD80B503
:10063C0084B000AFF860B9607A60FB68002B03D01F
:10064C00FB68012B04D007E0B868FFF7B3FE03E0AA
:10065C007868FFF7AFFE00BF00BF1037BD4680BD06
:10066C0080B500AF6F4B1B78022B30D0022B43DCD4
:10067C00002B02D0012B10D03EE0002000F0DAF865
:10068C000346002B33D0674B01221A7001224FF422
:10069C000051654801F051FE29E0002000F0CAF835
:1006AC000346002B09D100224FF400515E4801F0A3
:1006BC0044FE5C4B00221A701BE0002000F0D4F8C2
:1006CC000346002B15D0574B02221A7011E0002064
:1006DC0000F0B0F80346002B0DD100224FF400516E
:1006EC00514801F02AFE4F4B00221A7003E000BF64
:1006FC0002E000BF00E000BF4C4B1B78022B30D057
:10070C00022B43DC002B02D0012B10D03EE0012049
:10071C0000F090F80346002B33D0444B01221A70A2
:10072C0001224FF48041404801F007FE29E00120EE
:10073C0000F080F80346002B09D100224FF48041D1
:10074C00394801F0FAFD394B00221A701BE00120E8
:10075C0000F08AF80346002B15D0344B02221A7095
:10076C0011E0012000F066F80346002B0DD10022A9
:10077C004FF480412C4801F0E0FD2C4B00221A7004
:10078C0003E000BF02E000BF00E000BF284B1B7875
:10079C00022B30D0022B43DC002B02D0012B10D0CB
:1007AC003EE0022000F046F80346002B33D0204BED
:1007BC0001221A7001224FF400411B4801F0BDFDCB
:1007CC0029E0022000F036F80346002B09D1002264
:1007DC004FF40041144801F0B0FD154B00221A7083
:1007EC001BE0022000F040F80346002B15D0104B04
:1007FC0002221A7011E0022000F01CF80346002BB4
:10080C000DD100224FF40041074801F096FD084B32
:10081C0000221A7003E000BF02E000BF00E000BF3E
:10082C0000BF80BD4C000020000801404D0000209E
:10083C004E00002080B483B000AF0346FB71FB79FF
:10084C00022B01D9002307E0FB79064AD35C002B6D
:10085C000CBF01230023DBB218460C37BD4680BC0D
:10086C00704700BF5000002080B483B000AF034637
:10087C00FB71FB79022B01D9FF2307E0FB79064AB8
:10088C00D35C012B0CBF01230023DBB218460C37C1
:10089C00BD4680BC704700BF5C00002080B582B0B4
:1008AC0000AF314B1A78314B1A700121304801F0EE
:1008BC002DFD03461A462C4B1A702B4B5A782B4B9A
:1008CC005A7002212A4801F021FD03461A46264B94
:1008DC005A70254B9A78254B9A700421244801F0C4
:1008EC0015FD03461A46204B9A700023FB7133E02A
:1008FC00FB791D4AD25CFB791C49CB5C9A4228D10E
:10090C00FA79FB791849895C1A4AD154FB79194A4E
:10091C00D35C002B14D1FB79174A32F81330632BBC
:10092C0009D8FB79144A32F81320013291B2124AD9
:10093C0022F813100DE0FB79104A0121D15408E084
:10094C00FB790D4A002122F81310FB790B4A002188
:10095C00D154FB790133FB71FB79022BC8D900BF51
:10096C0000BF0837BD4680BD540000205800002051
:10097C00000C014050000020600000205C000020B2
:10098C0080B500AF01F0D8F900F00CF800F092F847
:10099C0000F044F8024802F02DF9FFF761FEFCE785
:1009AC009C00002080B590B000AF07F118032822FE
:1009BC000021184602F0DAFC3B1D00221A605A6036
:1009CC009A60DA601A610223BB610123BB621023B7
:1009DC00FB6200237B6307F11803184601F0DEFC71
:1009EC000346002B01D000F0C7F80F237B600023D7
:1009FC00BB600023FB6000233B6100237B613B1D3C
:100A0C000021184601F04AFF0346002B01D000F0EC
:100A1C00B3F800BF4037BD4680BD000080B586B03E
:100A2C0000AF07F1080300221A605A609A60DA607E
:100A3C003B4600221A605A601D4B4FF080421A60F0
:100A4C001B4B41F63F725A60194B00229A60184BAF
:100A5C000922DA60164B00221A61154B00229A61AA
:100A6C00134802F077F80346002B01D000F084F80D
:100A7C004FF48053BB6007F1080319460C4802F091
:100A8C000DFA0346002B01D000F076F800233B60F2
:100A9C0000237B603B461946054802F0D9FB034610
:100AAC00002B01D000F068F800BF1837BD4680BDA0
:100ABC009C00002080B586B000AF07F1080300222F
:100ACC001A605A609A60DA60284B9B69274A43F097
:100ADC0004039361254B9B6903F004037B607B68E3
:100AEC00224B9B69214A43F0080393611F4B9B697E
:100AFC0003F008033B603B6800224FF6FF711C4873
:100B0C0001F01BFC00224FF2F8311A4801F015FCE1
:100B1C004FF6FF73BB600123FB6000233B61022394
:100B2C007B6107F108031946114801F075FA072398
:100B3C00BB600023FB6000233B6107F108031946EF
:100B4C000C4801F069FA4FF2F833BB600123FB60EB
:100B5C0000233B6102237B6107F10803194605481A
:100B6C0001F05AFA00BF1837BD4680BD0010024094
:100B7C0000080140000C014080B400AF72B600BF09
:100B8C00FEE7000080B485B000AF154B9B69144A9A
:100B9C0043F001039361124B9B6903F00103BB60AB
:100BAC00BB680F4BDB690E4A43F08053D3610C4B8F
:100BBC00DB6903F080537B607B680A4B5B68FB60EE
:100BCC00FB6823F0E063FB60FB6843F08063FB6031
:100BDC00044AFB68536000BF1437BD4680BC7047A5
:100BEC00001002400000014080B584B000AF786076
:100BFC007B681B68B3F1804F13D10C4BDB690B4A3C
:100C0C0043F00103D361094BDB6903F00103FB6083
:100C1C00FB68002200211C2001F0C7F91C2001F008
:100C2C00E0F900BF1037BD4680BD00BF0010024088
:100C3C0080B400AFFEE780B400AFFEE780B400AF35
:100C4C00FEE780B400AFFEE780B400AFFEE780B4EF
:100C5C0000AF00BFBD4680BC704780B400AF00BF82
:100C6C00BD4680BC704780B400AF00BFBD4680BCA1
:100C7C00704780B500AF01F0A5F800BF80BD000043
:100C8C0080B500AF024802F001F800BF80BD00BF84
:100C9C009C00002080B400AF00BFBD4680BC7047F4
:100CAC0080B582B000AF7860904B1B68002B6AD186
:100CBC008F4B1B688F4A126802FB03F38C4A13603C
:100CCC008D4B1B688B4A126802FB03F38A4A136034
:100CDC008A4B1B68874A126802FB03F3884A13602D
:100CEC00884B1B68834A126802FB03F3864A136025
:100CFC00864B1B687F4A126802FB03F3844A13601D
:100D0C007E4B1B68834A13607E4B1B68824A1360C0
:100D1C007E4B1B68814A1360784B1B68804A1360BA
:100D2C00784B1B687F4A1360784B1B687E4A1360B4
:100D3C00704B1B68DA0F13445B101A467B4B1A601E
:100D4C007A4B1B687A4A1360684B01221A60694B14
:100D5C001B68DA0F13445B101A46764B1A60754BFE
:100D6C001B68754A1360734B1B68744A1360714B94
:100D7C001B68734A13605F4B1B68DA0F13445B10DC
:100D8C001A46704B1A604FF400516F4801F0BEFACE
:100D9C000346002B40F03081674B1A68654B1B688B
:100DAC009A42C0F22981694B1B68002B31D1012278
:100DBC000121654801F0C1FA01220221624801F0CB
:100DCC00BCFA01220421604801F0B7FA0122082183
:100DDC005D4801F0B2FA012210215B4801F0ADFA36
:100DEC0001222021584801F0A8FA594B00221A6020
:100DFC00584B00221A60554B1B680133534A136041
:100E0C003E4B1B68544A1360504B1B68534A13608B
:100E1C00EFE04E4B1B68012B31D1012201214A48D6
:100E2C0001F08BFA01220221474801F086FA0122D7
:100E3C000421454801F081FA01220821424801F0C1
:100E4C007CFA01221021404801F077FA012220217E
:100E5C003D4801F072FA3E4B00221A603D4B0022D5
:100E6C001A603A4B1B680133384A1360274B1B68D6
:100E7C00394A1360354B1B68384A1360B9E0334B61
:100E8C001B68022B6CD1012201212F4801F055FA6D
:100E9C00012202212C4801F050FA012204212A4897
:100EAC0001F04BFA01220821274801F046FA0122F1
:100EBC001021254801F041FA01222021224801F09D
:100ECC003CFA234B00221A60224B00221A601F4B63
:100EDC001B6801331D4A13600A4B1B681E4A1360C2
:100EEC001A4B1B681D4A136083E000BF680000208A
:100EFC000C0000200400002008000020100000203E
:100F0C00FC00002014000020F40000201800002039
:100F1C00EC000020F0000020080100200C01002053
:100F2C000001002004010020E4000020F800002053
:100F3C007C000020E80000208C00002090000020A5
:100F4C009400002098000020000801408800002038
:100F5C008000002084000020740000207800002015
:100F6C00964B1A68964B1B681A44964B1B68134495
:100F7C00954A126802FB03F3944A1360934B1B6867
:100F8C00934A13608D4B1B68924A13608C4B1B6801
:100F9C00914A13608B4B1B68904A1360874B1B68FC
:100FAC008F4A1360864B1B688E4A1360854B1B68F7
:100FBC008D4A13608D4B00221A608D4B00221A60F3
:100FCC008C4B00221A608C4B00221A608B4B1B68D6
:100FDC008B4A1360794B1B688A4A1360794B1B68E8
:100FEC00894A1360764B1B68884A1360884B002231
:100FFC001A60884B00221A60864B1B680133854AA5
:10100C001360834B1B68032B00F2458601A252F838
:10101C0023F000BF3110000877150008F517000801
:10102C006D1A00086A4B1A68684B1B689A4218DCE8
:10103C00664B1A68784B1B68D21A654B1B689A4230
:10104C000FDA00220121754801F077F90122022103
:10105C00724801F072F901220421704801F06DF917
:10106C0043E05A4B1A686C4B1B68D21A584B1B68DE
:10107C009A421BDB554B1A68674B1B68D21A684B9C
:10108C001B68D21A524B1B689A420FDA01220121BB
:10109C00624801F052F901220221604801F04DF939
:1010AC00002204215D4801F048F91EE0474B1A6804
:1010BC00594B1B68D21A5A4B1B68D21A444B1B68EB
:1010CC009A4212DB424B1B68002B0EDD01220121E0
:1010DC00524801F032F900220221504801F02DF95A
:1010EC00012204214D4801F028F9394B1B68364A7E
:1010FC00126893FBF2F102FB01F29B1A002B40F0F9
:10110C00D0803A4B1B68022B30D0022B43DC002BD7
:10111C0002D0012B15D03EE02E4B1B68354A1360D4
:10112C002C4B1B68013B2B4A13602A4B1B68002B72
:10113C0033D12E4B01221A60204B1B68254A1360B9
:10114C002BE0254B1B682B4A1360234B1B68013B80
:10115C00214A1360204B1B68002B20D1234B022209
:10116C001A60174B1B681C4A136018E01B4B1B685A
:10117C00204A1360194B1B68013B184A1360174B2C
:10118C001B68002B0DD1194B00221A600D4B1B68EC
:10119C00124A136005E000BF04E000BF02E000BF8C
:1011AC0000E000BF124B1B68022B65D0022B7ADCCF
:1011BC00002B37D0012B4AD075E000BF1000002067
:1011CC00140000201800002004000020080000205B
:1011DC000C000020F0000020080100200C01002071
:1011EC000001002004010020E40000206C0000201D
:1011FC00700000207400002078000020F80000200F
:10120C007C0000201C000020240000202000002076
:10121C00880000208C000020FC0000200008014009
:10122C00F40000209D4B1B689D4A13609B4B1B6870
:10123C00013B9A4A1360994B1B68002B35D1994B93
:10124C0001221A60984B1B68944A13602DE0974B4F
:10125C001B68934A1360954B1B68013B934A1360C0
:10126C00924B1B68002B22D18E4B02221A60904BA2
:10127C001B688E4A13601AE08E4B1B68884A1360F9
:10128C008C4B1B68013B8B4A13608A4B1B68002BF1
:10129C000FD1844B00221A60874B1B68854A136060
:1012AC0007E000BF06E000BF04E000BF02E000BFA3
:1012BC0000E000BF814B1A68814B1B689A4218DC16
:1012CC007F4B1A687F4B1B68D21A7C4B1B689A4267
:1012DC000FDA012208217C4801F02FF8012210219D
:1012EC00794801F02AF800222021774801F025F8EE
:1012FC0043E0734B1A68734B1B68D21A6F4B1B6815
:10130C009A421BDB6E4B1A68704B1B68D21A6D4BE2
:10131C001B68D21A694B1B689A420FDA012208210A
:10132C00694801F00AF800221021674801F005F81D
:10133C0001222021644801F000F81EE0604B1A687D
:10134C00624B1B68D21A5F4B1B68D21A5B4B1B6833
:10135C009A4212DB594B1B68002B0EDD0022082130
:10136C00594800F0EAFF01221021574800F0E5FF30
:10137C0001222021544800F0E0FF554B1B68002B44
:10138C0000F3E080534B1B68002B02D0012B2AD0BA
:10139C0053E000224FF480514F4800F0CEFF012261
:1013AC004FF400514C4800F0C8FF4C4B1B684C4AA2
:1013BC0082FB03129210DB17D01A484B1A68484B69
:1013CC0083FB02139910D317C91A0B469B000B44CD
:1013DC005B00D11A0A4601460020FFF70FF93D4B7E
:1013EC0001221A6029E001224FF480513A4800F0A2
:1013FC00A4FF00224FF40051374800F09EFF374BFA
:10140C001B68374A82FB03129210DB17D01A334B3E
:10141C001A68334B83FB02139910D317C91A0B4666
:10142C009B000B445B00D11A0A4601460120FFF7D2
:10143C00E5F8284B00221A6000BF2A4B1B68002BD2
:10144C0002D0012B50D079E000224FF48041224889
:10145C0000F073FF01224FF400411F4800F06DFFB4
:10146C000F4B1B681E4A82FB03129210DB17D01A1B
:10147C000B4B1A681A4B83FB02139910D317C91A1A
:10148C000B469B000B445B00D11A0A460146002018
:10149C00FFF7CDF8134B01221A604FE00401002036
:1014AC00780000207000002014000020E4000020D0
:1014BC001800002000010020100000200C0000206B
:1014CC0008000020F400002000080140EC0000207F
:1014DC007C00002080000020000C014074000020E3
:1014EC00676666668400002001224FF48041AC4898
:1014FC0000F023FF00224FF40041A94800F01DFF2B
:10150C00A84B1B68A84A82FB03129210DB17D01A57
:10151C00A44B1A68A44B83FB02139910D317C91A56
:10152C000B469B000B445B00D11A0A460146012076
:10153C00FFF77DF89D4B00221A6000BF9C4B1B6887
:10154C009C4A13609C4B1B68002B03DC9B4B1B6859
:10155C00994A1360974B1B68013B964A1360964B54
:10156C001B68013B944A136095E3954B1B68013B48
:10157C00934A1360924B1B68002B0FDC012191489E
:10158C0000F0F3FE08218F4800F0EFFE8E4B1B6835
:10159C00DA0F13445B101A46894B1A604FF48041E2
:1015AC00884800F0B3FE0346002B11D1874B1A6814
:1015BC00874B1B689A420BDB864B1B680133854AB1
:1015CC001360844B1B68844A1360804B00221A60A2
:1015DC004FF400417B4800F099FE0346002B10D1DC
:1015EC007E4B1A687A4B1B689A420ADB794B1B6854
:1015FC007B4A13607A4B1B68774A1360774B002247
:10160C001A606C4B1B68002B00F3BA80754B1B687F
:10161C00002B02D0012B2AD053E000224FF4805132
:10162C005F4800F08AFE01224FF400515C4800F044
:10163C0084FE694B1B685C4A82FB03129210DB1719
:10164C00D01A654B1A68584B83FB02139910D317A9
:10165C00C91A0B469B000B445B00D11A0A46014683
:10166C000020FEF7CBFF5F4B01221A6029E001221C
:10167C004FF480514A4800F060FE00224FF40051B4
:10168C00474800F05AFE544B1B68474A82FB031232
:10169C009210DB17D01A504B1A68434B83FB021382
:1016AC009910D317C91A0B469B000B445B00D11A37
:1016BC000A4601460120FEF7A1FF4A4B00221A60A0
:1016CC0000BF3A4B1B68002B02D0012B2AD053E0F1
:1016DC0000224FF48041324800F02FFE01224FF4DB
:1016EC0000412F4800F029FE2E4B1B682E4A82FB2E
:1016FC0003129210DB17D01A2A4B1A682A4B83FB61
:10170C0002139910D317C91A0B469B000B445B00AC
:10171C00D11A0A4601460020FEF789FF234B01220D
:10172C001A6029E001224FF480411D4800F005FEAB
:10173C0000224FF400411A4800F0FFFD194B1B68C2
:10174C00194A82FB03129210DB17D01A154B1A6838
:10175C00154B83FB02139910D317C91A0B469B0028
:10176C000B445B00D11A0A4601460120FEF75FFFCD
:10177C000E4B00221A6000BF0D4B1B680D4A136004
:10178C00164B1B680133154A1360104B1B68013351
:10179C000E4A1360074B1B68013B064A13607AE242
:1017AC00000C01407800002067666666840000200B
:1017BC00F80000207C0000200C0000200800002015
:1017CC009800002000080140040000209000002038
:1017DC00E80000201C000020740000209400002071
:1017EC0010000020800000208D4B1B68013B8C4AB0
:1017FC0013608B4B1B68002B0FDC0221894800F017
:10180C00B4FD1021874800F0B0FD874B1B68DA0F40
:10181C0013445B101A46824B1A604FF48041814886
:10182C0000F074FD0346002B11D1804B1A68804BDD
:10183C001B689A420BDB7F4B1B6801337D4A13609C
:10184C007C4B1B687C4A1360784B00221A604FF467
:10185C000041744800F05AFD0346002B10D1774B21
:10186C001A68734B1B689A420ADB724B1B68744AEA
:10187C001360734B1B68704A1360704B00221A6024
:10188C00704B1B68002B00F3BA806F4B1B68002B4E
:10189C0002D0012B2AD053E000224FF480516B4828
:1018AC0000F04BFD01224FF40051684800F045FD5B
:1018BC00614B1B68664A82FB03129210DB17D01A2D
:1018CC005D4B1A68624B83FB02139910D317C91A2C
:1018DC000B469B000B445B00D11A0A4601460020C4
:1018EC00FEF78CFE584B01221A6029E001224FF4BE
:1018FC008051564800F021FD00224FF4005153480E
:10190C0000F01BFD4C4B1B68514A82FB03129210DA
:10191C00DB17D01A484B1A684D4B83FB02139910F6
:10192C00D317C91A0B469B000B445B00D11A0A460D
:10193C0001460120FEF762FE434B00221A6000BFF5
:10194C00444B1B68002B02D0012B2AD053E0002201
:10195C004FF480413D4800F0F0FC01224FF400416F
:10196C003A4800F0EAFC3C4B1B68394A82FB0312F4
:10197C009210DB17D01A384B1A68354B83FB0213C5
:10198C009910D317C91A0B469B000B445B00D11A54
:10199C000A4601460020FEF74AFE2E4B01221A6031
:1019AC0029E001224FF48041284800F0C6FC0022B7
:1019BC004FF40041254800F0C0FC274B1B68244A1B
:1019CC0082FB03129210DB17D01A234B1A68204BA0
:1019DC0083FB02139910D317C91A0B469B000B44B7
:1019EC005B00D11A0A4601460120FEF720FE194B76
:1019FC0000221A6000BF194B1B68124A13600F4B70
:101A0C001B6801330D4A1360084B1B680133074AEE
:101A1C0013600C4B1B68013B0A4A13603BE100BF8F
:101A2C0098000020000801400400002090000020D5
:101A3C00E800002024000020740000209400002006
:101A4C00180000207C00002080000020000C0140C9
:101A5C00676666668400002078000020F80000208D
:101A6C00924B1B68013B914A1360904B1B68002BF7
:101A7C000FDC04218E4800F078FC20218C4800F00B
:101A8C0074FC8C4B1B68DA0F13445B101A46874BA3
:101A9C001A604FF48041864800F038FC0346002B56
:101AAC0011D1854B1A68854B1B689A420BDB844B12
:101ABC001B680133824A1360814B1B68814A136097
:101ACC007D4B00221A604FF40041794800F01EFC57
:101ADC000346002B10D17C4B1A68784B1B689A423A
:101AEC000ADB774B1B68794A1360784B1B68754A85
:101AFC001360754B00221A60754B1B68002B00F3AA
:101B0C00BA80744B1B68002B02D0012B2AD053E0F7
:101B1C0000224FF48051704800F00FFC01224FF46A
:101B2C0000516D4800F009FC664B1B686B4A82FB48
:101B3C0003129210DB17D01A624B1A68674B83FBA7
:101B4C0002139910D317C91A0B469B000B445B0068
:101B5C00D11A0A4601460020FEF750FD5D4B0122CA
:101B6C001A6029E001224FF480515B4800F0E5FB3C
:101B7C0000224FF40051584800F0DFFB514B1B681A
:101B8C00564A82FB03129210DB17D01A4D4B1A687F
:101B9C00524B83FB02139910D317C91A0B469B00A7
:101BAC000B445B00D11A0A4601460120FEF726FDC4
:101BBC00484B00221A6000BF494B1B68002B02D017
:101BCC00012B2AD053E000224FF48041424800F010
:101BDC00B4FB01224FF400413F4800F0AEFB414BF7
:101BEC001B683E4A82FB03129210DB17D01A3D4B46
:101BFC001A683A4B83FB02139910D317C91A0B4678
:101C0C009B000B445B00D11A0A4601460020FEF7EC
:101C1C000EFD334B01221A6029E001224FF4804162
:101C2C002D4800F08AFB00224FF400412A4800F0B6
:101C3C0084FB2C4B1B68294A82FB03129210DB1786
:101C4C00D01A284B1A68254B83FB02139910D31713
:101C5C00C91A0B469B000B445B00D11A0A4601467D
:101C6C000120FEF7E4FC1E4B00221A6000BF1E4B45
:101C7C001B68174A1360144B1B680133124A13601C
:101C8C000D4B1B6801330C4A1360114B1B68013B55
:101C9C000F4A136000BF7B681B68B3F1804F01D102
:101CAC00FEF7FCFD00BF0837BD4680BD9800002044
:101CBC00000801400400002090000020E8000020F3
:101CCC00200000207400002094000020140000204C
:101CDC007C00002080000020000C014067666666D6
:101CEC008400002078000020F8000020FEF7D2FFCE
:101CFC000B480C490C4A002302E0D458C45004335E
:101D0C00C4188C42F9D3094A094C002301E0136032
:101D1C000432A242FBD301F005FBFEF731FE704703
:101D2C000000002030000020CC33000830000020E0
:101D3C0014010020FEE7000080B500AF084B1B68C3
:101D4C00074A43F010031360032000F023F90F201F
:101D5C0000F008F8FEF716FF0023184680BD00BF00
:101D6C000020024080B582B000AF7860124B1A6838
:101D7C00124B1B7819464FF47A73B3FBF1F3B2FB99
:101D8C00F3F3184600F03BF90346002B01D0012376
:101D9C000EE07B680F2B0AD8002279684FF0FF30D9
:101DAC0000F003F9064A7B681360002300E001236E
:101DBC0018460837BD4680BD000000202C000020CE
:101DCC002800002080B400AF054B1B781A46054B49
:101DDC001B681344034A136000BFBD4680BC7047A8
:101DEC002C0000201001002080B400AF024B1B68B7
:101DFC001846BD4680BC70471001002080B485B0E9
:101E0C0000AF78607B6803F00703FB600C4BDB686A
:101E1C00BB60BA684FF6FF031340BB60FB681A0245
:101E2C00BB68134343F0BF6343F40033BB60044A05
:101E3C00BB68D36000BF1437BD4680BC704700BF81
:101E4C0000ED00E080B400AF044BDB681B0A03F02C
:101E5C0007031846BD4680BC704700BF00ED00E08C
:101E6C0080B483B000AF0346FB7197F90730002BA9
:101E7C000BDBFB7903F01F02064997F907305B096E
:101E8C00012000FA02F241F8232000BF0C37BD46B6
:101E9C0080BC704700E100E080B483B000AF034623
:101EAC003960FB7197F90730002B0ADB3B68DAB21B
:101EBC000C4997F907301201D2B20B4483F8002376
:101ECC000AE03B68DAB20849FB7903F00F03043BE4
:101EDC001201D2B20B441A7600BF0C37BD4680BC3F
:101EEC00704700BF00E100E000ED00E080B489B075
:101EFC0000AFF860B9607A60FB6803F00703FB6120
:101F0C00FB69C3F10703042B28BF0423BB61FB69E6
:101F1C000433062B02D9FB69033B00E000237B61F1
:101F2C004FF0FF32BB6902FA03F3DA43BB681A4085
:101F3C007B699A404FF0FF317B6901FA03F3D94377
:101F4C007B680B40134318462437BD4680BC704752
:101F5C0080B582B000AF78607B68013BB3F1807FC5
:101F6C0001D301230FE00A4A7B68013B53600F2128
:101F7C004FF0FF30FFF790FF054B00229A60044BA7
:101F8C0007221A60002318460837BD4680BD00BFE3
:101F9C0010E000E080B582B000AF78607868FFF7A1
:101FAC002DFF00BF0837BD4680BD80B586B000AFA1
:101FBC000346B9607A60FB7300237B61FFF742FF35
:101FCC0078617A68B9687869FFF790FF024697F9EB
:101FDC000F3011461846FFF75FFF00BF1837BD469C
:101FEC0080BD80B582B000AF0346FB7197F9073016
:101FFC001846FFF735FF00BF0837BD4680BD80B5DA
:10200C0082B000AF78607868FFF7A2FF03461846ED
:10201C000837BD4680BD000080B48BB000AF78603F
:10202C00396000237B6200233B6248E101227B6A1A
:10203C0002FA03F3FB613B681B68FA691340BB614E
:10204C00BA69FB699A4240F037813B685B68A34AE6
:10205C0093425ED0A14A934275D8A14A934258D07C
:10206C009F4A93426FD89F4A934252D09D4A9342C3
:10207C0069D89D4A93424CD09B4A934263D89B4A61
:10208C00934246D0994A93425DD8122B2AD8122BF0
:10209C0059D801A252F823F01F210008F92000089A
:1020AC000B2100084D210008532100085321000882
:1020BC005321000853210008532100085321000824
:1020CC005321000853210008532100085321000814
:1020DC005321000853210008532100080121000856
:1020EC0015210008824A934213D02CE03B68DB6830
:1020FC003B6229E03B68DB6804333B6224E03B68CD
:10210C00DB6808333B621FE03B68DB680C333B62E7
:10211C001AE03B689B68002B02D104233B6213E05E
:10212C003B689B68012B05D108233B627B68FA69ED
:10213C001A6109E008233B627B68FA695A6103E083
:10214C0000233B6200E000BFBB69FF2B01D87B681A
:10215C0001E07B6804337B61BB69FF2B02D87B6A8F
:10216C009B0002E07B6A083B9B003B617B691A6821
:10217C000F213B6901FA03F3DB431A40396A3B69CF
:10218C0001FA03F31A437B691A603B685B6803F03E
:10219C008053002B00F09080564B9B69554A43F0BE
:1021AC0001039361534B9B6903F00103BB60BB6854
:1021BC00514A7B6A9B08023352F82330FB607B6ADE
:1021CC0003F003039B000F2202FA03F3DB43FA68CC
:1021DC001340FB607B68494A93420DD07B68484AA8
:1021EC00934207D07B68474A934201D1022304E013
:1021FC00032302E0012300E000237A6A02F00302C9
:10220C0092009340FA681343FB603B497B6A9B083E
:10221C000233FA6841F823203B685B6803F48013AF
:10222C00002B06D0384B9A683749BB6913438B6037
:10223C0006E0354B9A68BB69DB43334913408B602E
:10224C003B685B6803F40013002B06D02E4BDA6856
:10225C002D49BB691343CB6006E02B4BDA68BB6995
:10226C00DB4329491340CB603B685B6803F40033C4
:10227C00002B06D0244B5A682349BB6913434B608F
:10228C0006E0214B5A68BB69DB431F4913404B6086
:10229C003B685B6803F48033002B06D01A4B1A683A
:1022AC001949BB6913430B6006E0174B1A68BB69ED
:1022BC00DB43154913400B607B6A01337B623B683F
:1022CC001A687B6A22FA03F3002B7FF4AFAE00BFCF
:1022DC0000BF2C37BD4680BC704700BF00003210D9
:1022EC00000031100000221000002110000012101C
:1022FC0000001110001002400000014000080140D5
:10230C00000C0140001001400004014080B485B075
:10231C0000AF78600B467B807B689A687B881340A3
:10232C00002B02D00123FB7301E00023FB73FB7B2A
:10233C0018461437BD4680BC704780B483B000AFDC
:10234C0078600B467B8013467B707B78002B03D028
:10235C007A887B681A6103E07B881A047B681A61AF
:10236C0000BF0C37BD4680BC704780B485B000AF51
:10237C0078600B467B807B68DB68FB607A88FB6847
:10238C0013401A04FB68D9437B880B401A437B68C3
:10239C001A6100BF1437BD4680BC704780B586B04B
:1023AC0000AF78607B68002B01D101236CE27B6865
:1023BC001B6803F00103002B00F08780924B5B68D5
:1023CC0003F00C03042B0CD08F4B5B6803F00C0355
:1023DC00082B12D18C4B5B6803F48033B3F5803F30
:1023EC000BD1894B1B6803F40033002B6CD07B683A
:1023FC005B68002B68D1012346E27B685B68B3F510
:10240C00803F06D1804B1B687F4A43F480331360B6
:10241C002EE07B685B68002B0CD17B4B1B687A4AE7
:10242C0023F480331360784B1B68774A23F48023A2
:10243C0013601DE07B685B68B3F5A02F0CD1724B69
:10244C001B68714A43F4802313606F4B1B686E4A00
:10245C0043F4803313600BE06B4B1B686A4A23F424
:10246C0080331360684B1B68674A23F48023136026
:10247C007B685B68002B13D0FFF7B6FC386108E073
:10248C00FFF7B2FC02463B69D31A642B01D9032334
:10249C00FAE15D4B1B6803F40033002BF0D014E021
:1024AC00FFF7A2FC386108E0FFF79EFC02463B698F
:1024BC00D31A642B01D90323E6E1534B1B6803F4B5
:1024CC000033002BF0D100E000BF7B681B6803F0E9
:1024DC000203002B63D04C4B5B6803F00C03002B06
:1024EC000BD0494B5B6803F00C03082B1CD1464BFB
:1024FC005B6803F48033002B16D1434B1B6803F04D
:10250C000203002B05D07B681B69012B01D0012332
:10251C00BAE13D4B1B6823F0F8027B685B69DB007A
:10252C00394913430B603AE07B681B69002B20D0C0
:10253C00364B01221A60FFF757FC386108E0FFF7B1
:10254C0053FC02463B69D31A022B01D903239BE1AE
:10255C002D4B1B6803F00203002BF0D02A4B1B6899
:10256C0023F0F8027B685B69DB00274913430B609F
:10257C0015E0264B00221A60FFF736FC386108E0A4
:10258C00FFF732FC02463B69D31A022B01D9032315
:10259C007AE11D4B1B6803F00203002BF0D17B6822
:1025AC001B6803F00803002B3AD07B689B69002B57
:1025BC0019D0174B01221A60FFF716FC386108E09E
:1025CC00FFF712FC02463B69D31A022B01D90323F5
:1025DC005AE10D4B5B6A03F00203002BF0D0012093
:1025EC0000F09AFA1CE00A4B00221A60FFF7FCFB81
:1025FC0038610FE0FFF7F8FB02463B69D31A022B58
:10260C0008D9032340E100BF001002400000424201
:10261C00800442429E4B5B6A03F00203002BE9D11B
:10262C007B681B6803F00403002B00F0A6800023DA
:10263C00FB75974BDB6903F08053002B0DD1944B4A
:10264C00DB69934A43F08053D361914BDB6903F010
:10265C008053BB60BB680123FB758E4B1B6803F476
:10266C008073002B18D18B4B1B688A4A43F4807300
:10267C001360FFF7B9FB386108E0FFF7B5FB0246C2
:10268C003B69D31A642B01D90323FDE0814B1B68F2
:10269C0003F48073002BF0D07B68DB68012B06D130
:1026AC007B4B1B6A7A4A43F0010313622DE07B6873
:1026BC00DB68002B0CD1764B1B6A754A23F00103A7
:1026CC001362734B1B6A724A23F0040313621CE0FF
:1026DC007B68DB68052B0CD16D4B1B6A6C4A43F095
:1026EC00040313626A4B1B6A694A43F001031362C9
:1026FC000BE0674B1B6A664A23F001031362644BC1
:10270C001B6A634A23F0040313627B68DB68002BAB
:10271C0015D0FFF769FB38610AE0FFF765FB02464D
:10272C003B69D31A41F28832934201D90323ABE0BF
:10273C00574B1B6A03F00203002BEED014E0FFF79B
:10274C0053FB38610AE0FFF74FFB02463B69D31A93
:10275C0041F28832934201D9032395E04C4B1B6A1A
:10276C0003F00203002BEED1FB7D012B05D1484B6E
:10277C00DB69474A23F08053D3617B68DB69002B0C
:10278C0000F08180424B5B6803F00C03082B61D096
:10279C007B68DB69022B46D13F4B00221A60FFF7A6
:1027AC0023FB386108E0FFF71FFB02463B69D31A95
:1027BC00022B01D9032367E0354B1B6803F0007330
:1027CC00002BF0D17B681B6AB3F5803F08D1304BEE
:1027DC005B6823F400327B689B682D4913434B6084
:1027EC002B4B5B6823F474127B68196A7B685B6AF9
:1027FC000B43274913434B60274B01221A60FFF709
:10280C00F3FA386108E0FFF7EFFA02463B69D31A96
:10281C00022B01D9032337E01D4B1B6803F0007317
:10282C00002BF0D02FE01C4B00221A60FFF7DCFAD3
:10283C00386108E0FFF7D8FA02463B69D31A022B3D
:10284C0001D9032320E0124B1B6803F00073002B0B
:10285C00F0D118E07B68DB69012B01D1012313E077
:10286C000B4B5B68FB60FB6803F480327B681B6A74
:10287C009A4206D1FB6803F470127B685B6A9A4239
:10288C0001D0012300E0002318461837BD4680BD57
:10289C0000100240007000406000424280B584B0DD
:1028AC0000AF786039607B68002B01D10123D0E048
:1028BC006A4B1B6803F007033A689A4210D9674BBE
:1028CC001B6823F0070265493B6813430B60634B9D
:1028DC001B6803F007033A689A4201D00123B8E061
:1028EC007B681B6803F00203002B20D07B681B68FD
:1028FC0003F00403002B05D0594B5B68584A43F492
:10290C00E06353607B681B6803F00803002B05D061
:10291C00534B5B68524A43F460535360504B5B68B3
:10292C0023F0F0027B689B684D4913434B607B6836
:10293C001B6803F00103002B40D07B685B68012B04
:10294C0007D1474B1B6803F40033002B15D101232F
:10295C007FE07B685B68022B07D1414B1B6803F05F
:10296C000073002B09D1012373E03D4B1B6803F06E
:10297C000203002B01D101236BE0394B5B6823F080
:10298C0003027B685B68364913434B60FFF72CFAF4
:10299C00F8600AE0FFF728FA0246FB68D31A41F206
:1029AC008832934201D9032353E02D4B5B6803F02B
:1029BC000C027B685B689B009A42EBD1274B1B682F
:1029CC0003F007033A689A4210D2244B1B6823F099
:1029DC00070222493B6813430B60204B1B6803F032
:1029EC0007033A689A4201D0012332E07B681B68E6
:1029FC0003F00403002B08D0194B5B6823F4E0624E
:102A0C007B68DB68164913434B607B681B6803F0DB
:102A1C000803002B09D0124B5B6823F460527B68CF
:102A2C001B69DB000E4913434B6000F021F8024692
:102A3C000B4B5B681B0903F00F030A49CB5C22FAB2
:102A4C0003F3094A1360094B1B681846FFF78AF910
:102A5C00002318461037BD4680BD00BF0020024041
:102A6C0000100240A03300080000002028000020C5
:102A7C0080B487B000AF0023FB600023BB60002351
:102A8C007B6100237B6000233B611E4B5B68FB601A
:102A9C00FB6803F00C03042B02D0082B03D027E0B7
:102AAC00194B3B6127E0FB689B0C03F00F03174AA3
:102ABC00D35C7B60FB6803F48033002B10D0114B8C
:102ACC005B685B0C03F00103114AD35CBB607B6851
:102ADC000D4A02FB03F2BB68B2FBF3F37B6104E02B
:102AEC007B680C4A02FB03F37B617B693B6102E070
:102AFC00054B3B6100BF3B6918461C37BD4680BC8B
:102B0C00704700BF0010024000127A00B03300087A
:102B1C00C033000800093D0080B485B000AF786078
:102B2C000A4B1B680A4AA2FB03235B0A7A6802FB66
:102B3C0003F3FB6000BFFB685A1EFA60002BF9D14F
:102B4C0000BF00BF1437BD4680BC7047000000209A
:102B5C00D34D621080B582B000AF78607B68002BDB
:102B6C0001D1012341E07B6893F83D30DBB2002BAF
:102B7C0006D17B68002283F83C207868FEF734F895
:102B8C007B68022283F83D207B681A687B680433DB
:102B9C001946104600F06EFA7B68012283F8462035
:102BAC007B68012283F83E207B68012283F83F205A
:102BBC007B68012283F840207B68012283F8412046
:102BCC007B68012283F842207B68012283F8432032
:102BDC007B68012283F844207B68012283F845201E
:102BEC007B68012283F83D20002318460837BD4638
:102BFC0080BD000080B485B000AF78607B6893F82E
:102C0C003D30DBB2012B01D0012335E07B68022281
:102C1C0083F83D207B681B68DA687B681B6842F090
:102C2C000102DA607B681B68164A934209D07B6804
:102C3C001B68B3F1804F04D07B681B68124A934227
:102C4C0011D17B681B689B6803F00703FB60FB6872
:102C5C00062B10D07B681B681A687B681B6842F0D7
:102C6C0001021A6007E07B681B681A687B681B68A6
:102C7C0042F001021A60002318461437BD4680BC8E
:102C8C00704700BF002C01400004004080B582B0AA
:102C9C0000AF78607B681B681B6903F00203022B92
:102CAC0022D17B681B68DB6803F00203022B1BD16B
:102CBC007B681B686FF002021A617B6801221A772D
:102CCC007B681B689B6903F00303002B03D07868B7
:102CDC0000F0B4F905E0786800F0A7F9786800F026
:102CEC00B6F97B6800221A777B681B681B6903F0B6
:102CFC000403042B22D17B681B68DB6803F00403FC
:102D0C00042B1BD17B681B686FF004021A617B6873
:102D1C0002221A777B681B689B6903F44073002BB3
:102D2C0003D0786800F08AF905E0786800F07DF946
:102D3C00786800F08CF97B6800221A777B681B6836
:102D4C001B6903F00803082B22D17B681B68DB6826
:102D5C0003F00803082B1BD17B681B686FF008027B
:102D6C001A617B6804221A777B681B68DB6903F0A5
:102D7C000303002B03D0786800F060F905E0786855
:102D8C0000F053F9786800F062F97B6800221A773A
:102D9C007B681B681B6903F01003102B22D17B6826
:102DAC001B68DB6803F01003102B1BD17B681B68BE
:102DBC006FF010021A617B6808221A777B681B6817
:102DCC00DB6903F44073002B03D0786800F036F90C
:102DDC0005E0786800F029F9786800F038F97B682C
:102DEC0000221A777B681B681B6903F00103012B17
:102DFC000ED17B681B68DB6803F00103012B07D144
:102E0C007B681B686FF001021A617868FDF748FF58
:102E1C007B681B681B6903F08003802B0ED17B68D9
:102E2C001B68DB6803F08003802B07D17B681B6871
:102E3C006FF080021A61786800F06BFA7B681B688F
:102E4C001B6903F04003402B0ED17B681B68DB68C9
:102E5C0003F04003402B07D17B681B686FF04002E6
:102E6C001A61786800F0FCF87B681B681B6903F03A
:102E7C002003202B0ED17B681B68DB6803F020033A
:102E8C00202B07D17B681B686FF020021A617868D1
:102E9C0000F036FA00BF0837BD4680BD80B584B05F
:102EAC0000AF786039600023FB737B6893F83C308B
:102EBC00012B01D10223B4E07B68012283F83C2072
:102ECC007B68022283F83D207B681B689B68BB6093
:102EDC00BB6823F07703BB60BB6823F47F43BB6004
:102EEC007B681B68BA689A603B681B68B3F5005F27
:102EFC003ED0B3F5005F00F28780B3F5805F00F041
:102F0C008680B3F5805F7FD8702B1AD0702B7BD85E
:102F1C00602B50D0602B77D8502B3CD0502B73D8D3
:102F2C00402B58D0402B6FD8302B64D0302B6BD823
:102F3C00202B60D0202B67D8002B5CD0102B5AD0C4
:102F4C0062E07B6818683B6899683B685A683B6824
:102F5C00DB6800F05EF97B681B689B68BB60BB6834
:102F6C0043F07703BB607B681B68BA689A604FE0DC
:102F7C007B6818683B6899683B685A683B68DB68F3
:102F8C0000F047F97B681B689A687B681B6842F401
:102F9C0080429A603CE07B6818683B6859683B68E3
:102FAC00DB681A4600F0BEF87B681B685021184697
:102FBC0000F015F92CE07B6818683B6859683B6891
:102FCC00DB681A4600F0DCF87B681B686021184649
:102FDC0000F005F91CE07B6818683B6859683B6891
:102FEC00DB681A4600F09EF87B681B684021184687
:102FFC0000F0F5F80CE07B681A683B681B68194612
:10300C00104600F0ECF803E00123FB7300E000BF76
:10301C007B68012283F83D207B68002283F83C20EA
:10302C00FB7B18461037BD4680BD80B483B000AF23
:10303C00786000BF0C37BD4680BC704780B483B04D
:10304C0000AF786000BF0C37BD4680BC704780B4C1
:10305C0083B000AF786000BF0C37BD4680BC7047B2
:10306C0080B483B000AF786000BF0C37BD4680BC25
:10307C007047000080B485B000AF786039607B6821
:10308C001B68FB607B68254A934207D07B68B3F1D1
:10309C00804F03D07B68224A934208D1FB6823F00F
:1030AC007003FB603B685B68FA681343FB607B68EA
:1030BC001A4A934207D07B68B3F1804F03D07B68E8
:1030CC00174A934208D1FB6823F44073FB603B68BA
:1030DC00DB68FA681343FB60FB6823F080023B68F3
:1030EC005B691343FB607B68FA681A603B689A68FB
:1030FC007B68DA623B681A687B689A627B68074A6D
:10310C00934203D13B681A697B681A637B6801227E
:10311C005A6100BF1437BD4680BC7047002C01407B
:10312C000004004080B487B000AFF860B9607A60EA
:10313C00FB681B6A7B61FB681B6A23F00102FB685E
:10314C001A62FB689B693B613B6923F0F0033B61AE
:10315C007B681B013A6913433B617B6923F00A03CB
:10316C007B617A69BB6813437B61FB683A699A613E
:10317C00FB687A691A6200BF1C37BD4680BC704779
:10318C0080B487B000AFF860B9607A60FB681B6AE6
:10319C007B61FB681B6A23F01002FB681A62FB68F8
:1031AC009B693B613B6923F470433B617B681B0368
:1031BC003A6913433B617B6923F0A0037B61BB68D5
:1031CC001B017A6913437B61FB683A699A61FB685E
:1031DC007A691A6200BF1C37BD4680BC704780B448
:1031EC0085B000AF786039607B689B68FB60FB68DA
:1031FC0023F07003FB603A68FB68134343F007034A
:10320C00FB607B68FA689A6000BF1437BD4680BCCF
:10321C00704780B487B000AFF860B9607A603B60EB
:10322C00FB689B687B617B6923F47F437B613B6814
:10323C001A027B681A43BB6813437A6913437B6198
:10324C00FB687A699A6000BF1C37BD4680BC70472A
:10325C0080B485B000AF786039607B6893F83C30FF
:10326C00012B01D1022341E07B68012283F83C2031
:10327C007B68022283F83D207B681B685B68FB60DF
:10328C007B681B689B68BB60FB6823F07003FB606A
:10329C003B681B68FA681343FB607B681B68FA6821
:1032AC005A607B681B68144A934209D07B681B6880
:1032BC00B3F1804F04D07B681B68104A93420CD149
:1032CC00BB6823F08003BB603B685B68BA68134340
:1032DC00BB607B681B68BA689A607B68012283F8C4
:1032EC003D207B68002283F83C20002318461437CD
:1032FC00BD4680BC704700BF002C0140000400405C
:10330C0080B483B000AF786000BF0C37BD4680BC82
:10331C00704780B483B000AF786000BF0C37BD46F7
:10332C0080BC704770B500260C4D0D4C641BA4106E
:10333C00A64209D100F022F800260A4D0A4C641B63
:10334C00A410A64205D170BD55F8043B9847013630
:10335C00EEE755F8043B98470136F2E7C433000812
:10336C00C4330008C4330008C833000803460244C1
:10337C00934200D1704703F8011BF9E7F8B500BF81
:10338C00F8BC08BC9E467047F8B500BFF8BC08BC3A
:04339C009E46704792
:1033A00000000000000000000102030406070809F5
:1033B00002030405060708090A0B0C0D0E0F101076
:0433C0000102000006
:0433C40031010008CB
:0433C8000D010008EB
:1033CC000024F400640000000A0000000A00000061
:1033DC0005000000030000000200000005000000D2
:1033EC0003000000020000001000000001000000BB
:0400000508001CF9DA
:00000001FF
